{
	"contracts/Utils.sol": {
		"Utils": {
			"abi": [
				{
					"inputs": [
						{
							"internalType": "uint256",
							"name": "number",
							"type": "uint256"
						}
					],
					"name": "toBytes",
					"outputs": [
						{
							"internalType": "bytes",
							"name": "",
							"type": "bytes"
						}
					],
					"stateMutability": "pure",
					"type": "function"
				},
				{
					"inputs": [
						{
							"internalType": "uint256",
							"name": "number",
							"type": "uint256"
						}
					],
					"name": "toString",
					"outputs": [
						{
							"internalType": "string",
							"name": "",
							"type": "string"
						}
					],
					"stateMutability": "pure",
					"type": "function"
				},
				{
					"inputs": [
						{
							"internalType": "bytes",
							"name": "data",
							"type": "bytes"
						}
					],
					"name": "toUint",
					"outputs": [
						{
							"internalType": "uint256",
							"name": "",
							"type": "uint256"
						}
					],
					"stateMutability": "pure",
					"type": "function"
				}
			],
			"devdoc": {
				"kind": "dev",
				"methods": {},
				"version": 1
			},
			"evm": {
				"assembly": "    /* \"contracts/Utils.sol\":57:865  library Utils {... */\n  dataSize(sub_0)\n  dataOffset(sub_0)\n  0x0b\n  dup3\n  dup3\n  dup3\n  codecopy\n  dup1\n  mload\n  0x00\n  byte\n  0x73\n  eq\n  tag_1\n  jumpi\n  mstore(0x00, 0x4e487b7100000000000000000000000000000000000000000000000000000000)\n  mstore(0x04, 0x00)\n  revert(0x00, 0x24)\ntag_1:\n  mstore(0x00, address)\n  0x73\n  dup2\n  mstore8\n  dup3\n  dup2\n  return\nstop\n\nsub_0: assembly {\n        /* \"contracts/Utils.sol\":57:865  library Utils {... */\n      eq(address, deployTimeAddress())\n      mstore(0x40, 0x80)\n      jumpi(tag_1, lt(calldatasize, 0x04))\n      shr(0xe0, calldataload(0x00))\n      dup1\n      0x677ca2d8\n      eq\n      tag_2\n      jumpi\n      dup1\n      0x6900a3ae\n      eq\n      tag_3\n      jumpi\n      dup1\n      0x775a8f5e\n      eq\n      tag_4\n      jumpi\n      dup1\n      0x8529d576\n      eq\n      tag_5\n      jumpi\n    tag_1:\n      0x00\n      dup1\n      revert\n        /* \"contracts/Utils.sol\":555:863  function remove(uint256[] storage array, uint256 index) public returns (uint256[] memory)  {... */\n    tag_2:\n      dup2\n      dup1\n      iszero\n      tag_6\n      jumpi\n      0x00\n      dup1\n      revert\n    tag_6:\n      pop\n      tag_7\n      0x04\n      dup1\n      calldatasize\n      sub\n      dup2\n      add\n      swap1\n      tag_8\n      swap2\n      swap1\n      tag_9\n      jump\t// in\n    tag_8:\n      tag_10\n      jump\t// in\n    tag_7:\n      mload(0x40)\n      tag_11\n      swap2\n      swap1\n      tag_12\n      jump\t// in\n    tag_11:\n      mload(0x40)\n      dup1\n      swap2\n      sub\n      swap1\n      return\n        /* \"contracts/Utils.sol\":252:430  function toString(uint256 number) public pure returns (string memory) {... */\n    tag_3:\n      tag_13\n      0x04\n      dup1\n      calldatasize\n      sub\n      dup2\n      add\n      swap1\n      tag_14\n      swap2\n      swap1\n      tag_15\n      jump\t// in\n    tag_14:\n      tag_16\n      jump\t// in\n    tag_13:\n      mload(0x40)\n      tag_17\n      swap2\n      swap1\n      tag_18\n      jump\t// in\n    tag_17:\n      mload(0x40)\n      dup1\n      swap2\n      sub\n      swap1\n      return\n        /* \"contracts/Utils.sol\":78:246  function toBytes(uint256 number) public pure returns (bytes memory) {... */\n    tag_4:\n      tag_19\n      0x04\n      dup1\n      calldatasize\n      sub\n      dup2\n      add\n      swap1\n      tag_20\n      swap2\n      swap1\n      tag_15\n      jump\t// in\n    tag_20:\n      tag_21\n      jump\t// in\n    tag_19:\n      mload(0x40)\n      tag_22\n      swap2\n      swap1\n      tag_23\n      jump\t// in\n    tag_22:\n      mload(0x40)\n      dup1\n      swap2\n      sub\n      swap1\n      return\n        /* \"contracts/Utils.sol\":436:549  function toUint(bytes calldata data) public pure returns (uint256) {... */\n    tag_5:\n      tag_24\n      0x04\n      dup1\n      calldatasize\n      sub\n      dup2\n      add\n      swap1\n      tag_25\n      swap2\n      swap1\n      tag_26\n      jump\t// in\n    tag_25:\n      tag_27\n      jump\t// in\n    tag_24:\n      mload(0x40)\n      tag_28\n      swap2\n      swap1\n      tag_29\n      jump\t// in\n    tag_28:\n      mload(0x40)\n      dup1\n      swap2\n      sub\n      swap1\n      return\n        /* \"contracts/Utils.sol\":555:863  function remove(uint256[] storage array, uint256 index) public returns (uint256[] memory)  {... */\n    tag_10:\n        /* \"contracts/Utils.sol\":627:643  uint256[] memory */\n      0x60\n        /* \"contracts/Utils.sol\":669:674  array */\n      dup3\n        /* \"contracts/Utils.sol\":669:681  array.length */\n      dup1\n      sload\n      swap1\n      pop\n        /* \"contracts/Utils.sol\":660:665  index */\n      dup3\n        /* \"contracts/Utils.sol\":660:681  index >= array.length */\n      lt\n        /* \"contracts/Utils.sol\":656:695  if (index >= array.length) return array */\n      tag_31\n      jumpi\n        /* \"contracts/Utils.sol\":690:695  array */\n      dup3\n        /* \"contracts/Utils.sol\":683:695  return array */\n      dup1\n      sload\n      dup1\n      0x20\n      mul\n      0x20\n      add\n      mload(0x40)\n      swap1\n      dup2\n      add\n      0x40\n      mstore\n      dup1\n      swap3\n      swap2\n      swap1\n      dup2\n      dup2\n      mstore\n      0x20\n      add\n      dup3\n      dup1\n      sload\n      dup1\n      iszero\n      tag_32\n      jumpi\n      0x20\n      mul\n      dup3\n      add\n      swap2\n      swap1\n      0x00\n      mstore\n      keccak256(0x00, 0x20)\n      swap1\n    tag_33:\n      dup2\n      sload\n      dup2\n      mstore\n      0x20\n      add\n      swap1\n      0x01\n      add\n      swap1\n      dup1\n      dup4\n      gt\n      tag_33\n      jumpi\n    tag_32:\n      pop\n      pop\n      pop\n      pop\n      pop\n      swap1\n      pop\n      jump(tag_30)\n        /* \"contracts/Utils.sol\":656:695  if (index >= array.length) return array */\n    tag_31:\n        /* \"contracts/Utils.sol\":711:720  uint256 i */\n      0x00\n        /* \"contracts/Utils.sol\":723:728  index */\n      dup3\n        /* \"contracts/Utils.sol\":711:728  uint256 i = index */\n      swap1\n      pop\n        /* \"contracts/Utils.sol\":706:804  for (uint256 i = index; i < array.length - 1; i++){... */\n    tag_34:\n        /* \"contracts/Utils.sol\":749:750  1 */\n      0x01\n        /* \"contracts/Utils.sol\":734:739  array */\n      dup5\n        /* \"contracts/Utils.sol\":734:746  array.length */\n      dup1\n      sload\n      swap1\n      pop\n        /* \"contracts/Utils.sol\":734:750  array.length - 1 */\n      tag_37\n      swap2\n      swap1\n      tag_38\n      jump\t// in\n    tag_37:\n        /* \"contracts/Utils.sol\":730:731  i */\n      dup2\n        /* \"contracts/Utils.sol\":730:750  i < array.length - 1 */\n      lt\n        /* \"contracts/Utils.sol\":706:804  for (uint256 i = index; i < array.length - 1; i++){... */\n      iszero\n      tag_35\n      jumpi\n        /* \"contracts/Utils.sol\":781:786  array */\n      dup4\n        /* \"contracts/Utils.sol\":791:792  1 */\n      0x01\n        /* \"contracts/Utils.sol\":787:788  i */\n      dup3\n        /* \"contracts/Utils.sol\":787:792  i + 1 */\n      tag_39\n      swap2\n      swap1\n      tag_40\n      jump\t// in\n    tag_39:\n        /* \"contracts/Utils.sol\":781:793  array[i + 1] */\n      dup2\n      sload\n      dup2\n      lt\n      tag_41\n      jumpi\n      tag_42\n      tag_43\n      jump\t// in\n    tag_42:\n    tag_41:\n      swap1\n      0x00\n      mstore\n      keccak256(0x00, 0x20)\n      add\n      sload\n        /* \"contracts/Utils.sol\":770:775  array */\n      dup5\n        /* \"contracts/Utils.sol\":776:777  i */\n      dup3\n        /* \"contracts/Utils.sol\":770:778  array[i] */\n      dup2\n      sload\n      dup2\n      lt\n      tag_45\n      jumpi\n      tag_46\n      tag_43\n      jump\t// in\n    tag_46:\n    tag_45:\n      swap1\n      0x00\n      mstore\n      keccak256(0x00, 0x20)\n      add\n        /* \"contracts/Utils.sol\":770:793  array[i] = array[i + 1] */\n      dup2\n      swap1\n      sstore\n      pop\n        /* \"contracts/Utils.sol\":752:755  i++ */\n      dup1\n      dup1\n      tag_48\n      swap1\n      tag_49\n      jump\t// in\n    tag_48:\n      swap2\n      pop\n      pop\n        /* \"contracts/Utils.sol\":706:804  for (uint256 i = index; i < array.length - 1; i++){... */\n      jump(tag_34)\n    tag_35:\n      pop\n        /* \"contracts/Utils.sol\":822:827  array */\n      dup3\n        /* \"contracts/Utils.sol\":822:833  array.pop() */\n      dup1\n      sload\n      dup1\n      tag_50\n      jumpi\n      tag_51\n      tag_52\n      jump\t// in\n    tag_51:\n    tag_50:\n      0x01\n      swap1\n      sub\n      dup2\n      dup2\n      swap1\n      0x00\n      mstore\n      keccak256(0x00, 0x20)\n      add\n      0x00\n      swap1\n      sstore\n      swap1\n      sstore\n        /* \"contracts/Utils.sol\":851:856  array */\n      dup3\n        /* \"contracts/Utils.sol\":844:856  return array */\n      dup1\n      sload\n      dup1\n      0x20\n      mul\n      0x20\n      add\n      mload(0x40)\n      swap1\n      dup2\n      add\n      0x40\n      mstore\n      dup1\n      swap3\n      swap2\n      swap1\n      dup2\n      dup2\n      mstore\n      0x20\n      add\n      dup3\n      dup1\n      sload\n      dup1\n      iszero\n      tag_54\n      jumpi\n      0x20\n      mul\n      dup3\n      add\n      swap2\n      swap1\n      0x00\n      mstore\n      keccak256(0x00, 0x20)\n      swap1\n    tag_55:\n      dup2\n      sload\n      dup2\n      mstore\n      0x20\n      add\n      swap1\n      0x01\n      add\n      swap1\n      dup1\n      dup4\n      gt\n      tag_55\n      jumpi\n    tag_54:\n      pop\n      pop\n      pop\n      pop\n      pop\n      swap1\n      pop\n        /* \"contracts/Utils.sol\":555:863  function remove(uint256[] storage array, uint256 index) public returns (uint256[] memory)  {... */\n    tag_30:\n      swap3\n      swap2\n      pop\n      pop\n      jump\t// out\n        /* \"contracts/Utils.sol\":252:430  function toString(uint256 number) public pure returns (string memory) {... */\n    tag_16:\n        /* \"contracts/Utils.sol\":307:320  string memory */\n      0x60\n        /* \"contracts/Utils.sol\":332:358  bytes memory numberInBytes */\n      0x00\n        /* \"contracts/Utils.sol\":378:384  number */\n      dup3\n        /* \"contracts/Utils.sol\":361:385  abi.encodePacked(number) */\n      add(0x20, mload(0x40))\n      tag_57\n      swap2\n      swap1\n      tag_58\n      jump\t// in\n    tag_57:\n      mload(0x40)\n      0x20\n      dup2\n      dup4\n      sub\n      sub\n      dup2\n      mstore\n      swap1\n      0x40\n      mstore\n        /* \"contracts/Utils.sol\":332:385  bytes memory numberInBytes = abi.encodePacked(number) */\n      swap1\n      pop\n        /* \"contracts/Utils.sol\":409:422  numberInBytes */\n      dup1\n        /* \"contracts/Utils.sol\":395:423  return string(numberInBytes) */\n      swap2\n      pop\n      pop\n        /* \"contracts/Utils.sol\":252:430  function toString(uint256 number) public pure returns (string memory) {... */\n      swap2\n      swap1\n      pop\n      jump\t// out\n        /* \"contracts/Utils.sol\":78:246  function toBytes(uint256 number) public pure returns (bytes memory) {... */\n    tag_21:\n        /* \"contracts/Utils.sol\":132:144  bytes memory */\n      0x60\n        /* \"contracts/Utils.sol\":156:182  bytes memory numberInBytes */\n      0x00\n        /* \"contracts/Utils.sol\":202:208  number */\n      dup3\n        /* \"contracts/Utils.sol\":185:209  abi.encodePacked(number) */\n      add(0x20, mload(0x40))\n      tag_60\n      swap2\n      swap1\n      tag_58\n      jump\t// in\n    tag_60:\n      mload(0x40)\n      0x20\n      dup2\n      dup4\n      sub\n      sub\n      dup2\n      mstore\n      swap1\n      0x40\n      mstore\n        /* \"contracts/Utils.sol\":156:209  bytes memory numberInBytes = abi.encodePacked(number) */\n      swap1\n      pop\n        /* \"contracts/Utils.sol\":226:239  numberInBytes */\n      dup1\n        /* \"contracts/Utils.sol\":219:239  return numberInBytes */\n      swap2\n      pop\n      pop\n        /* \"contracts/Utils.sol\":78:246  function toBytes(uint256 number) public pure returns (bytes memory) {... */\n      swap2\n      swap1\n      pop\n      jump\t// out\n        /* \"contracts/Utils.sol\":436:549  function toUint(bytes calldata data) public pure returns (uint256) {... */\n    tag_27:\n        /* \"contracts/Utils.sol\":494:501  uint256 */\n      0x00\n        /* \"contracts/Utils.sol\":536:540  data */\n      dup3\n      dup3\n        /* \"contracts/Utils.sol\":528:541  bytes32(data) */\n      swap1\n      tag_62\n      swap2\n      swap1\n      tag_63\n      jump\t// in\n    tag_62:\n        /* \"contracts/Utils.sol\":520:542  uint256(bytes32(data)) */\n      0x00\n      shr\n        /* \"contracts/Utils.sol\":513:542  return uint256(bytes32(data)) */\n      swap1\n      pop\n        /* \"contracts/Utils.sol\":436:549  function toUint(bytes calldata data) public pure returns (uint256) {... */\n      swap3\n      swap2\n      pop\n      pop\n      jump\t// out\n        /* \"#utility.yul\":88:205   */\n    tag_65:\n        /* \"#utility.yul\":197:198   */\n      0x00\n        /* \"#utility.yul\":194:195   */\n      dup1\n        /* \"#utility.yul\":187:199   */\n      revert\n        /* \"#utility.yul\":211:328   */\n    tag_66:\n        /* \"#utility.yul\":320:321   */\n      0x00\n        /* \"#utility.yul\":317:318   */\n      dup1\n        /* \"#utility.yul\":310:322   */\n      revert\n        /* \"#utility.yul\":334:437   */\n    tag_67:\n        /* \"#utility.yul\":397:404   */\n      0x00\n        /* \"#utility.yul\":426:431   */\n      dup2\n        /* \"#utility.yul\":415:431   */\n      swap1\n      pop\n        /* \"#utility.yul\":334:437   */\n      swap2\n      swap1\n      pop\n      jump\t// out\n        /* \"#utility.yul\":443:617   */\n    tag_68:\n        /* \"#utility.yul\":542:592   */\n      tag_106\n        /* \"#utility.yul\":586:591   */\n      dup2\n        /* \"#utility.yul\":542:592   */\n      tag_67\n      jump\t// in\n    tag_106:\n        /* \"#utility.yul\":535:540   */\n      dup2\n        /* \"#utility.yul\":532:593   */\n      eq\n        /* \"#utility.yul\":522:611   */\n      tag_107\n      jumpi\n        /* \"#utility.yul\":607:608   */\n      0x00\n        /* \"#utility.yul\":604:605   */\n      dup1\n        /* \"#utility.yul\":597:609   */\n      revert\n        /* \"#utility.yul\":522:611   */\n    tag_107:\n        /* \"#utility.yul\":443:617   */\n      pop\n      jump\t// out\n        /* \"#utility.yul\":623:814   */\n    tag_69:\n        /* \"#utility.yul\":695:700   */\n      0x00\n        /* \"#utility.yul\":733:739   */\n      dup2\n        /* \"#utility.yul\":720:740   */\n      calldataload\n        /* \"#utility.yul\":711:740   */\n      swap1\n      pop\n        /* \"#utility.yul\":749:808   */\n      tag_109\n        /* \"#utility.yul\":802:807   */\n      dup2\n        /* \"#utility.yul\":749:808   */\n      tag_68\n      jump\t// in\n    tag_109:\n        /* \"#utility.yul\":623:814   */\n      swap3\n      swap2\n      pop\n      pop\n      jump\t// out\n        /* \"#utility.yul\":820:897   */\n    tag_70:\n        /* \"#utility.yul\":857:864   */\n      0x00\n        /* \"#utility.yul\":886:891   */\n      dup2\n        /* \"#utility.yul\":875:891   */\n      swap1\n      pop\n        /* \"#utility.yul\":820:897   */\n      swap2\n      swap1\n      pop\n      jump\t// out\n        /* \"#utility.yul\":903:1025   */\n    tag_71:\n        /* \"#utility.yul\":976:1000   */\n      tag_112\n        /* \"#utility.yul\":994:999   */\n      dup2\n        /* \"#utility.yul\":976:1000   */\n      tag_70\n      jump\t// in\n    tag_112:\n        /* \"#utility.yul\":969:974   */\n      dup2\n        /* \"#utility.yul\":966:1001   */\n      eq\n        /* \"#utility.yul\":956:1019   */\n      tag_113\n      jumpi\n        /* \"#utility.yul\":1015:1016   */\n      0x00\n        /* \"#utility.yul\":1012:1013   */\n      dup1\n        /* \"#utility.yul\":1005:1017   */\n      revert\n        /* \"#utility.yul\":956:1019   */\n    tag_113:\n        /* \"#utility.yul\":903:1025   */\n      pop\n      jump\t// out\n        /* \"#utility.yul\":1031:1170   */\n    tag_72:\n        /* \"#utility.yul\":1077:1082   */\n      0x00\n        /* \"#utility.yul\":1115:1121   */\n      dup2\n        /* \"#utility.yul\":1102:1122   */\n      calldataload\n        /* \"#utility.yul\":1093:1122   */\n      swap1\n      pop\n        /* \"#utility.yul\":1131:1164   */\n      tag_115\n        /* \"#utility.yul\":1158:1163   */\n      dup2\n        /* \"#utility.yul\":1131:1164   */\n      tag_71\n      jump\t// in\n    tag_115:\n        /* \"#utility.yul\":1031:1170   */\n      swap3\n      swap2\n      pop\n      pop\n      jump\t// out\n        /* \"#utility.yul\":1176:1702   */\n    tag_9:\n        /* \"#utility.yul\":1270:1276   */\n      0x00\n        /* \"#utility.yul\":1278:1284   */\n      dup1\n        /* \"#utility.yul\":1327:1329   */\n      0x40\n        /* \"#utility.yul\":1315:1324   */\n      dup4\n        /* \"#utility.yul\":1306:1313   */\n      dup6\n        /* \"#utility.yul\":1302:1325   */\n      sub\n        /* \"#utility.yul\":1298:1330   */\n      slt\n        /* \"#utility.yul\":1295:1414   */\n      iszero\n      tag_117\n      jumpi\n        /* \"#utility.yul\":1333:1412   */\n      tag_118\n      tag_65\n      jump\t// in\n    tag_118:\n        /* \"#utility.yul\":1295:1414   */\n    tag_117:\n        /* \"#utility.yul\":1453:1454   */\n      0x00\n        /* \"#utility.yul\":1478:1557   */\n      tag_119\n        /* \"#utility.yul\":1549:1556   */\n      dup6\n        /* \"#utility.yul\":1540:1546   */\n      dup3\n        /* \"#utility.yul\":1529:1538   */\n      dup7\n        /* \"#utility.yul\":1525:1547   */\n      add\n        /* \"#utility.yul\":1478:1557   */\n      tag_69\n      jump\t// in\n    tag_119:\n        /* \"#utility.yul\":1468:1557   */\n      swap3\n      pop\n        /* \"#utility.yul\":1424:1567   */\n      pop\n        /* \"#utility.yul\":1606:1608   */\n      0x20\n        /* \"#utility.yul\":1632:1685   */\n      tag_120\n        /* \"#utility.yul\":1677:1684   */\n      dup6\n        /* \"#utility.yul\":1668:1674   */\n      dup3\n        /* \"#utility.yul\":1657:1666   */\n      dup7\n        /* \"#utility.yul\":1653:1675   */\n      add\n        /* \"#utility.yul\":1632:1685   */\n      tag_72\n      jump\t// in\n    tag_120:\n        /* \"#utility.yul\":1622:1685   */\n      swap2\n      pop\n        /* \"#utility.yul\":1577:1695   */\n      pop\n        /* \"#utility.yul\":1176:1702   */\n      swap3\n      pop\n      swap3\n      swap1\n      pop\n      jump\t// out\n        /* \"#utility.yul\":1708:1822   */\n    tag_73:\n        /* \"#utility.yul\":1775:1781   */\n      0x00\n        /* \"#utility.yul\":1809:1814   */\n      dup2\n        /* \"#utility.yul\":1803:1815   */\n      mload\n        /* \"#utility.yul\":1793:1815   */\n      swap1\n      pop\n        /* \"#utility.yul\":1708:1822   */\n      swap2\n      swap1\n      pop\n      jump\t// out\n        /* \"#utility.yul\":1828:2020   */\n    tag_74:\n        /* \"#utility.yul\":1935:1946   */\n      0x00\n        /* \"#utility.yul\":1969:1975   */\n      dup3\n        /* \"#utility.yul\":1964:1967   */\n      dup3\n        /* \"#utility.yul\":1957:1976   */\n      mstore\n        /* \"#utility.yul\":2009:2013   */\n      0x20\n        /* \"#utility.yul\":2004:2007   */\n      dup3\n        /* \"#utility.yul\":2000:2014   */\n      add\n        /* \"#utility.yul\":1985:2014   */\n      swap1\n      pop\n        /* \"#utility.yul\":1828:2020   */\n      swap3\n      swap2\n      pop\n      pop\n      jump\t// out\n        /* \"#utility.yul\":2026:2158   */\n    tag_75:\n        /* \"#utility.yul\":2093:2097   */\n      0x00\n        /* \"#utility.yul\":2116:2119   */\n      dup2\n        /* \"#utility.yul\":2108:2119   */\n      swap1\n      pop\n        /* \"#utility.yul\":2146:2150   */\n      0x20\n        /* \"#utility.yul\":2141:2144   */\n      dup3\n        /* \"#utility.yul\":2137:2151   */\n      add\n        /* \"#utility.yul\":2129:2151   */\n      swap1\n      pop\n        /* \"#utility.yul\":2026:2158   */\n      swap2\n      swap1\n      pop\n      jump\t// out\n        /* \"#utility.yul\":2164:2280   */\n    tag_76:\n        /* \"#utility.yul\":2249:2273   */\n      tag_125\n        /* \"#utility.yul\":2267:2272   */\n      dup2\n        /* \"#utility.yul\":2249:2273   */\n      tag_70\n      jump\t// in\n    tag_125:\n        /* \"#utility.yul\":2244:2247   */\n      dup3\n        /* \"#utility.yul\":2237:2274   */\n      mstore\n        /* \"#utility.yul\":2164:2280   */\n      pop\n      pop\n      jump\t// out\n        /* \"#utility.yul\":2286:2481   */\n    tag_77:\n        /* \"#utility.yul\":2363:2373   */\n      0x00\n        /* \"#utility.yul\":2384:2438   */\n      tag_127\n        /* \"#utility.yul\":2434:2437   */\n      dup4\n        /* \"#utility.yul\":2426:2432   */\n      dup4\n        /* \"#utility.yul\":2384:2438   */\n      tag_76\n      jump\t// in\n    tag_127:\n        /* \"#utility.yul\":2470:2474   */\n      0x20\n        /* \"#utility.yul\":2465:2468   */\n      dup4\n        /* \"#utility.yul\":2461:2475   */\n      add\n        /* \"#utility.yul\":2447:2475   */\n      swap1\n      pop\n        /* \"#utility.yul\":2286:2481   */\n      swap3\n      swap2\n      pop\n      pop\n      jump\t// out\n        /* \"#utility.yul\":2487:2600   */\n    tag_78:\n        /* \"#utility.yul\":2557:2561   */\n      0x00\n        /* \"#utility.yul\":2589:2593   */\n      0x20\n        /* \"#utility.yul\":2584:2587   */\n      dup3\n        /* \"#utility.yul\":2580:2594   */\n      add\n        /* \"#utility.yul\":2572:2594   */\n      swap1\n      pop\n        /* \"#utility.yul\":2487:2600   */\n      swap2\n      swap1\n      pop\n      jump\t// out\n        /* \"#utility.yul\":2636:3392   */\n    tag_79:\n        /* \"#utility.yul\":2763:2766   */\n      0x00\n        /* \"#utility.yul\":2792:2846   */\n      tag_130\n        /* \"#utility.yul\":2840:2845   */\n      dup3\n        /* \"#utility.yul\":2792:2846   */\n      tag_73\n      jump\t// in\n    tag_130:\n        /* \"#utility.yul\":2862:2956   */\n      tag_131\n        /* \"#utility.yul\":2949:2955   */\n      dup2\n        /* \"#utility.yul\":2944:2947   */\n      dup6\n        /* \"#utility.yul\":2862:2956   */\n      tag_74\n      jump\t// in\n    tag_131:\n        /* \"#utility.yul\":2855:2956   */\n      swap4\n      pop\n        /* \"#utility.yul\":2980:3036   */\n      tag_132\n        /* \"#utility.yul\":3030:3035   */\n      dup4\n        /* \"#utility.yul\":2980:3036   */\n      tag_75\n      jump\t// in\n    tag_132:\n        /* \"#utility.yul\":3059:3066   */\n      dup1\n        /* \"#utility.yul\":3090:3091   */\n      0x00\n        /* \"#utility.yul\":3075:3367   */\n    tag_133:\n        /* \"#utility.yul\":3100:3106   */\n      dup4\n        /* \"#utility.yul\":3097:3098   */\n      dup2\n        /* \"#utility.yul\":3094:3107   */\n      lt\n        /* \"#utility.yul\":3075:3367   */\n      iszero\n      tag_135\n      jumpi\n        /* \"#utility.yul\":3176:3182   */\n      dup2\n        /* \"#utility.yul\":3170:3183   */\n      mload\n        /* \"#utility.yul\":3203:3274   */\n      tag_136\n        /* \"#utility.yul\":3270:3273   */\n      dup9\n        /* \"#utility.yul\":3255:3268   */\n      dup3\n        /* \"#utility.yul\":3203:3274   */\n      tag_77\n      jump\t// in\n    tag_136:\n        /* \"#utility.yul\":3196:3274   */\n      swap8\n      pop\n        /* \"#utility.yul\":3297:3357   */\n      tag_137\n        /* \"#utility.yul\":3350:3356   */\n      dup4\n        /* \"#utility.yul\":3297:3357   */\n      tag_78\n      jump\t// in\n    tag_137:\n        /* \"#utility.yul\":3287:3357   */\n      swap3\n      pop\n        /* \"#utility.yul\":3135:3367   */\n      pop\n        /* \"#utility.yul\":3122:3123   */\n      0x01\n        /* \"#utility.yul\":3119:3120   */\n      dup2\n        /* \"#utility.yul\":3115:3124   */\n      add\n        /* \"#utility.yul\":3110:3124   */\n      swap1\n      pop\n        /* \"#utility.yul\":3075:3367   */\n      jump(tag_133)\n    tag_135:\n        /* \"#utility.yul\":3079:3093   */\n      pop\n        /* \"#utility.yul\":3383:3386   */\n      dup6\n        /* \"#utility.yul\":3376:3386   */\n      swap4\n      pop\n        /* \"#utility.yul\":2768:3392   */\n      pop\n      pop\n      pop\n        /* \"#utility.yul\":2636:3392   */\n      swap3\n      swap2\n      pop\n      pop\n      jump\t// out\n        /* \"#utility.yul\":3398:3787   */\n    tag_12:\n        /* \"#utility.yul\":3549:3553   */\n      0x00\n        /* \"#utility.yul\":3587:3589   */\n      0x20\n        /* \"#utility.yul\":3576:3585   */\n      dup3\n        /* \"#utility.yul\":3572:3590   */\n      add\n        /* \"#utility.yul\":3564:3590   */\n      swap1\n      pop\n        /* \"#utility.yul\":3636:3645   */\n      dup2\n        /* \"#utility.yul\":3630:3634   */\n      dup2\n        /* \"#utility.yul\":3626:3646   */\n      sub\n        /* \"#utility.yul\":3622:3623   */\n      0x00\n        /* \"#utility.yul\":3611:3620   */\n      dup4\n        /* \"#utility.yul\":3607:3624   */\n      add\n        /* \"#utility.yul\":3600:3647   */\n      mstore\n        /* \"#utility.yul\":3664:3780   */\n      tag_139\n        /* \"#utility.yul\":3775:3779   */\n      dup2\n        /* \"#utility.yul\":3766:3772   */\n      dup5\n        /* \"#utility.yul\":3664:3780   */\n      tag_79\n      jump\t// in\n    tag_139:\n        /* \"#utility.yul\":3656:3780   */\n      swap1\n      pop\n        /* \"#utility.yul\":3398:3787   */\n      swap3\n      swap2\n      pop\n      pop\n      jump\t// out\n        /* \"#utility.yul\":3793:4122   */\n    tag_15:\n        /* \"#utility.yul\":3852:3858   */\n      0x00\n        /* \"#utility.yul\":3901:3903   */\n      0x20\n        /* \"#utility.yul\":3889:3898   */\n      dup3\n        /* \"#utility.yul\":3880:3887   */\n      dup5\n        /* \"#utility.yul\":3876:3899   */\n      sub\n        /* \"#utility.yul\":3872:3904   */\n      slt\n        /* \"#utility.yul\":3869:3988   */\n      iszero\n      tag_141\n      jumpi\n        /* \"#utility.yul\":3907:3986   */\n      tag_142\n      tag_65\n      jump\t// in\n    tag_142:\n        /* \"#utility.yul\":3869:3988   */\n    tag_141:\n        /* \"#utility.yul\":4027:4028   */\n      0x00\n        /* \"#utility.yul\":4052:4105   */\n      tag_143\n        /* \"#utility.yul\":4097:4104   */\n      dup5\n        /* \"#utility.yul\":4088:4094   */\n      dup3\n        /* \"#utility.yul\":4077:4086   */\n      dup6\n        /* \"#utility.yul\":4073:4095   */\n      add\n        /* \"#utility.yul\":4052:4105   */\n      tag_72\n      jump\t// in\n    tag_143:\n        /* \"#utility.yul\":4042:4105   */\n      swap2\n      pop\n        /* \"#utility.yul\":3998:4115   */\n      pop\n        /* \"#utility.yul\":3793:4122   */\n      swap3\n      swap2\n      pop\n      pop\n      jump\t// out\n        /* \"#utility.yul\":4128:4227   */\n    tag_80:\n        /* \"#utility.yul\":4180:4186   */\n      0x00\n        /* \"#utility.yul\":4214:4219   */\n      dup2\n        /* \"#utility.yul\":4208:4220   */\n      mload\n        /* \"#utility.yul\":4198:4220   */\n      swap1\n      pop\n        /* \"#utility.yul\":4128:4227   */\n      swap2\n      swap1\n      pop\n      jump\t// out\n        /* \"#utility.yul\":4233:4410   */\n    tag_81:\n        /* \"#utility.yul\":4325:4336   */\n      0x00\n        /* \"#utility.yul\":4359:4365   */\n      dup3\n        /* \"#utility.yul\":4354:4357   */\n      dup3\n        /* \"#utility.yul\":4347:4366   */\n      mstore\n        /* \"#utility.yul\":4399:4403   */\n      0x20\n        /* \"#utility.yul\":4394:4397   */\n      dup3\n        /* \"#utility.yul\":4390:4404   */\n      add\n        /* \"#utility.yul\":4375:4404   */\n      swap1\n      pop\n        /* \"#utility.yul\":4233:4410   */\n      swap3\n      swap2\n      pop\n      pop\n      jump\t// out\n        /* \"#utility.yul\":4416:4662   */\n    tag_82:\n        /* \"#utility.yul\":4497:4498   */\n      0x00\n        /* \"#utility.yul\":4507:4620   */\n    tag_147:\n        /* \"#utility.yul\":4521:4527   */\n      dup4\n        /* \"#utility.yul\":4518:4519   */\n      dup2\n        /* \"#utility.yul\":4515:4528   */\n      lt\n        /* \"#utility.yul\":4507:4620   */\n      iszero\n      tag_149\n      jumpi\n        /* \"#utility.yul\":4606:4607   */\n      dup1\n        /* \"#utility.yul\":4601:4604   */\n      dup3\n        /* \"#utility.yul\":4597:4608   */\n      add\n        /* \"#utility.yul\":4591:4609   */\n      mload\n        /* \"#utility.yul\":4587:4588   */\n      dup2\n        /* \"#utility.yul\":4582:4585   */\n      dup5\n        /* \"#utility.yul\":4578:4589   */\n      add\n        /* \"#utility.yul\":4571:4610   */\n      mstore\n        /* \"#utility.yul\":4543:4545   */\n      0x20\n        /* \"#utility.yul\":4540:4541   */\n      dup2\n        /* \"#utility.yul\":4536:4546   */\n      add\n        /* \"#utility.yul\":4531:4546   */\n      swap1\n      pop\n        /* \"#utility.yul\":4507:4620   */\n      jump(tag_147)\n    tag_149:\n        /* \"#utility.yul\":4654:4655   */\n      0x00\n        /* \"#utility.yul\":4645:4651   */\n      dup5\n        /* \"#utility.yul\":4640:4643   */\n      dup5\n        /* \"#utility.yul\":4636:4652   */\n      add\n        /* \"#utility.yul\":4629:4656   */\n      mstore\n        /* \"#utility.yul\":4478:4662   */\n      pop\n        /* \"#utility.yul\":4416:4662   */\n      pop\n      pop\n      pop\n      jump\t// out\n        /* \"#utility.yul\":4668:4770   */\n    tag_83:\n        /* \"#utility.yul\":4709:4715   */\n      0x00\n        /* \"#utility.yul\":4760:4762   */\n      0x1f\n        /* \"#utility.yul\":4756:4763   */\n      not\n        /* \"#utility.yul\":4751:4753   */\n      0x1f\n        /* \"#utility.yul\":4744:4749   */\n      dup4\n        /* \"#utility.yul\":4740:4754   */\n      add\n        /* \"#utility.yul\":4736:4764   */\n      and\n        /* \"#utility.yul\":4726:4764   */\n      swap1\n      pop\n        /* \"#utility.yul\":4668:4770   */\n      swap2\n      swap1\n      pop\n      jump\t// out\n        /* \"#utility.yul\":4776:5169   */\n    tag_84:\n        /* \"#utility.yul\":4872:4875   */\n      0x00\n        /* \"#utility.yul\":4900:4939   */\n      tag_152\n        /* \"#utility.yul\":4933:4938   */\n      dup3\n        /* \"#utility.yul\":4900:4939   */\n      tag_80\n      jump\t// in\n    tag_152:\n        /* \"#utility.yul\":4955:5034   */\n      tag_153\n        /* \"#utility.yul\":5027:5033   */\n      dup2\n        /* \"#utility.yul\":5022:5025   */\n      dup6\n        /* \"#utility.yul\":4955:5034   */\n      tag_81\n      jump\t// in\n    tag_153:\n        /* \"#utility.yul\":4948:5034   */\n      swap4\n      pop\n        /* \"#utility.yul\":5043:5108   */\n      tag_154\n        /* \"#utility.yul\":5101:5107   */\n      dup2\n        /* \"#utility.yul\":5096:5099   */\n      dup6\n        /* \"#utility.yul\":5089:5093   */\n      0x20\n        /* \"#utility.yul\":5082:5087   */\n      dup7\n        /* \"#utility.yul\":5078:5094   */\n      add\n        /* \"#utility.yul\":5043:5108   */\n      tag_82\n      jump\t// in\n    tag_154:\n        /* \"#utility.yul\":5133:5162   */\n      tag_155\n        /* \"#utility.yul\":5155:5161   */\n      dup2\n        /* \"#utility.yul\":5133:5162   */\n      tag_83\n      jump\t// in\n    tag_155:\n        /* \"#utility.yul\":5128:5131   */\n      dup5\n        /* \"#utility.yul\":5124:5163   */\n      add\n        /* \"#utility.yul\":5117:5163   */\n      swap2\n      pop\n        /* \"#utility.yul\":4876:5169   */\n      pop\n        /* \"#utility.yul\":4776:5169   */\n      swap3\n      swap2\n      pop\n      pop\n      jump\t// out\n        /* \"#utility.yul\":5175:5504   */\n    tag_18:\n        /* \"#utility.yul\":5296:5300   */\n      0x00\n        /* \"#utility.yul\":5334:5336   */\n      0x20\n        /* \"#utility.yul\":5323:5332   */\n      dup3\n        /* \"#utility.yul\":5319:5337   */\n      add\n        /* \"#utility.yul\":5311:5337   */\n      swap1\n      pop\n        /* \"#utility.yul\":5383:5392   */\n      dup2\n        /* \"#utility.yul\":5377:5381   */\n      dup2\n        /* \"#utility.yul\":5373:5393   */\n      sub\n        /* \"#utility.yul\":5369:5370   */\n      0x00\n        /* \"#utility.yul\":5358:5367   */\n      dup4\n        /* \"#utility.yul\":5354:5371   */\n      add\n        /* \"#utility.yul\":5347:5394   */\n      mstore\n        /* \"#utility.yul\":5411:5497   */\n      tag_157\n        /* \"#utility.yul\":5492:5496   */\n      dup2\n        /* \"#utility.yul\":5483:5489   */\n      dup5\n        /* \"#utility.yul\":5411:5497   */\n      tag_84\n      jump\t// in\n    tag_157:\n        /* \"#utility.yul\":5403:5497   */\n      swap1\n      pop\n        /* \"#utility.yul\":5175:5504   */\n      swap3\n      swap2\n      pop\n      pop\n      jump\t// out\n        /* \"#utility.yul\":5510:5608   */\n    tag_85:\n        /* \"#utility.yul\":5561:5567   */\n      0x00\n        /* \"#utility.yul\":5595:5600   */\n      dup2\n        /* \"#utility.yul\":5589:5601   */\n      mload\n        /* \"#utility.yul\":5579:5601   */\n      swap1\n      pop\n        /* \"#utility.yul\":5510:5608   */\n      swap2\n      swap1\n      pop\n      jump\t// out\n        /* \"#utility.yul\":5614:5790   */\n    tag_86:\n        /* \"#utility.yul\":5705:5716   */\n      0x00\n        /* \"#utility.yul\":5739:5745   */\n      dup3\n        /* \"#utility.yul\":5734:5737   */\n      dup3\n        /* \"#utility.yul\":5727:5746   */\n      mstore\n        /* \"#utility.yul\":5779:5783   */\n      0x20\n        /* \"#utility.yul\":5774:5777   */\n      dup3\n        /* \"#utility.yul\":5770:5784   */\n      add\n        /* \"#utility.yul\":5755:5784   */\n      swap1\n      pop\n        /* \"#utility.yul\":5614:5790   */\n      swap3\n      swap2\n      pop\n      pop\n      jump\t// out\n        /* \"#utility.yul\":5796:6185   */\n    tag_87:\n        /* \"#utility.yul\":5890:5893   */\n      0x00\n        /* \"#utility.yul\":5918:5956   */\n      tag_161\n        /* \"#utility.yul\":5950:5955   */\n      dup3\n        /* \"#utility.yul\":5918:5956   */\n      tag_85\n      jump\t// in\n    tag_161:\n        /* \"#utility.yul\":5972:6050   */\n      tag_162\n        /* \"#utility.yul\":6043:6049   */\n      dup2\n        /* \"#utility.yul\":6038:6041   */\n      dup6\n        /* \"#utility.yul\":5972:6050   */\n      tag_86\n      jump\t// in\n    tag_162:\n        /* \"#utility.yul\":5965:6050   */\n      swap4\n      pop\n        /* \"#utility.yul\":6059:6124   */\n      tag_163\n        /* \"#utility.yul\":6117:6123   */\n      dup2\n        /* \"#utility.yul\":6112:6115   */\n      dup6\n        /* \"#utility.yul\":6105:6109   */\n      0x20\n        /* \"#utility.yul\":6098:6103   */\n      dup7\n        /* \"#utility.yul\":6094:6110   */\n      add\n        /* \"#utility.yul\":6059:6124   */\n      tag_82\n      jump\t// in\n    tag_163:\n        /* \"#utility.yul\":6149:6178   */\n      tag_164\n        /* \"#utility.yul\":6171:6177   */\n      dup2\n        /* \"#utility.yul\":6149:6178   */\n      tag_83\n      jump\t// in\n    tag_164:\n        /* \"#utility.yul\":6144:6147   */\n      dup5\n        /* \"#utility.yul\":6140:6179   */\n      add\n        /* \"#utility.yul\":6133:6179   */\n      swap2\n      pop\n        /* \"#utility.yul\":5894:6185   */\n      pop\n        /* \"#utility.yul\":5796:6185   */\n      swap3\n      swap2\n      pop\n      pop\n      jump\t// out\n        /* \"#utility.yul\":6191:6516   */\n    tag_23:\n        /* \"#utility.yul\":6310:6314   */\n      0x00\n        /* \"#utility.yul\":6348:6350   */\n      0x20\n        /* \"#utility.yul\":6337:6346   */\n      dup3\n        /* \"#utility.yul\":6333:6351   */\n      add\n        /* \"#utility.yul\":6325:6351   */\n      swap1\n      pop\n        /* \"#utility.yul\":6397:6406   */\n      dup2\n        /* \"#utility.yul\":6391:6395   */\n      dup2\n        /* \"#utility.yul\":6387:6407   */\n      sub\n        /* \"#utility.yul\":6383:6384   */\n      0x00\n        /* \"#utility.yul\":6372:6381   */\n      dup4\n        /* \"#utility.yul\":6368:6385   */\n      add\n        /* \"#utility.yul\":6361:6408   */\n      mstore\n        /* \"#utility.yul\":6425:6509   */\n      tag_166\n        /* \"#utility.yul\":6504:6508   */\n      dup2\n        /* \"#utility.yul\":6495:6501   */\n      dup5\n        /* \"#utility.yul\":6425:6509   */\n      tag_87\n      jump\t// in\n    tag_166:\n        /* \"#utility.yul\":6417:6509   */\n      swap1\n      pop\n        /* \"#utility.yul\":6191:6516   */\n      swap3\n      swap2\n      pop\n      pop\n      jump\t// out\n        /* \"#utility.yul\":6522:6639   */\n    tag_88:\n        /* \"#utility.yul\":6631:6632   */\n      0x00\n        /* \"#utility.yul\":6628:6629   */\n      dup1\n        /* \"#utility.yul\":6621:6633   */\n      revert\n        /* \"#utility.yul\":6645:6762   */\n    tag_89:\n        /* \"#utility.yul\":6754:6755   */\n      0x00\n        /* \"#utility.yul\":6751:6752   */\n      dup1\n        /* \"#utility.yul\":6744:6756   */\n      revert\n        /* \"#utility.yul\":6768:6885   */\n    tag_90:\n        /* \"#utility.yul\":6877:6878   */\n      0x00\n        /* \"#utility.yul\":6874:6875   */\n      dup1\n        /* \"#utility.yul\":6867:6879   */\n      revert\n        /* \"#utility.yul\":6904:7456   */\n    tag_91:\n        /* \"#utility.yul\":6961:6969   */\n      0x00\n        /* \"#utility.yul\":6971:6977   */\n      dup1\n        /* \"#utility.yul\":7021:7024   */\n      dup4\n        /* \"#utility.yul\":7014:7018   */\n      0x1f\n        /* \"#utility.yul\":7006:7012   */\n      dup5\n        /* \"#utility.yul\":7002:7019   */\n      add\n        /* \"#utility.yul\":6998:7025   */\n      slt\n        /* \"#utility.yul\":6988:7110   */\n      tag_171\n      jumpi\n        /* \"#utility.yul\":7029:7108   */\n      tag_172\n      tag_88\n      jump\t// in\n    tag_172:\n        /* \"#utility.yul\":6988:7110   */\n    tag_171:\n        /* \"#utility.yul\":7142:7148   */\n      dup3\n        /* \"#utility.yul\":7129:7149   */\n      calldataload\n        /* \"#utility.yul\":7119:7149   */\n      swap1\n      pop\n        /* \"#utility.yul\":7172:7190   */\n      0xffffffffffffffff\n        /* \"#utility.yul\":7164:7170   */\n      dup2\n        /* \"#utility.yul\":7161:7191   */\n      gt\n        /* \"#utility.yul\":7158:7275   */\n      iszero\n      tag_173\n      jumpi\n        /* \"#utility.yul\":7194:7273   */\n      tag_174\n      tag_89\n      jump\t// in\n    tag_174:\n        /* \"#utility.yul\":7158:7275   */\n    tag_173:\n        /* \"#utility.yul\":7308:7312   */\n      0x20\n        /* \"#utility.yul\":7300:7306   */\n      dup4\n        /* \"#utility.yul\":7296:7313   */\n      add\n        /* \"#utility.yul\":7284:7313   */\n      swap2\n      pop\n        /* \"#utility.yul\":7362:7365   */\n      dup4\n        /* \"#utility.yul\":7354:7358   */\n      0x01\n        /* \"#utility.yul\":7346:7352   */\n      dup3\n        /* \"#utility.yul\":7342:7359   */\n      mul\n        /* \"#utility.yul\":7332:7340   */\n      dup4\n        /* \"#utility.yul\":7328:7360   */\n      add\n        /* \"#utility.yul\":7325:7366   */\n      gt\n        /* \"#utility.yul\":7322:7450   */\n      iszero\n      tag_175\n      jumpi\n        /* \"#utility.yul\":7369:7448   */\n      tag_176\n      tag_90\n      jump\t// in\n    tag_176:\n        /* \"#utility.yul\":7322:7450   */\n    tag_175:\n        /* \"#utility.yul\":6904:7456   */\n      swap3\n      pop\n      swap3\n      swap1\n      pop\n      jump\t// out\n        /* \"#utility.yul\":7462:7989   */\n    tag_26:\n        /* \"#utility.yul\":7532:7538   */\n      0x00\n        /* \"#utility.yul\":7540:7546   */\n      dup1\n        /* \"#utility.yul\":7589:7591   */\n      0x20\n        /* \"#utility.yul\":7577:7586   */\n      dup4\n        /* \"#utility.yul\":7568:7575   */\n      dup6\n        /* \"#utility.yul\":7564:7587   */\n      sub\n        /* \"#utility.yul\":7560:7592   */\n      slt\n        /* \"#utility.yul\":7557:7676   */\n      iszero\n      tag_178\n      jumpi\n        /* \"#utility.yul\":7595:7674   */\n      tag_179\n      tag_65\n      jump\t// in\n    tag_179:\n        /* \"#utility.yul\":7557:7676   */\n    tag_178:\n        /* \"#utility.yul\":7743:7744   */\n      0x00\n        /* \"#utility.yul\":7732:7741   */\n      dup4\n        /* \"#utility.yul\":7728:7745   */\n      add\n        /* \"#utility.yul\":7715:7746   */\n      calldataload\n        /* \"#utility.yul\":7773:7791   */\n      0xffffffffffffffff\n        /* \"#utility.yul\":7765:7771   */\n      dup2\n        /* \"#utility.yul\":7762:7792   */\n      gt\n        /* \"#utility.yul\":7759:7876   */\n      iszero\n      tag_180\n      jumpi\n        /* \"#utility.yul\":7795:7874   */\n      tag_181\n      tag_66\n      jump\t// in\n    tag_181:\n        /* \"#utility.yul\":7759:7876   */\n    tag_180:\n        /* \"#utility.yul\":7908:7972   */\n      tag_182\n        /* \"#utility.yul\":7964:7971   */\n      dup6\n        /* \"#utility.yul\":7955:7961   */\n      dup3\n        /* \"#utility.yul\":7944:7953   */\n      dup7\n        /* \"#utility.yul\":7940:7962   */\n      add\n        /* \"#utility.yul\":7908:7972   */\n      tag_91\n      jump\t// in\n    tag_182:\n        /* \"#utility.yul\":7890:7972   */\n      swap3\n      pop\n      swap3\n      pop\n        /* \"#utility.yul\":7686:7982   */\n      pop\n        /* \"#utility.yul\":7462:7989   */\n      swap3\n      pop\n      swap3\n      swap1\n      pop\n      jump\t// out\n        /* \"#utility.yul\":7995:8121   */\n    tag_92:\n        /* \"#utility.yul\":8090:8114   */\n      tag_184\n        /* \"#utility.yul\":8108:8113   */\n      dup2\n        /* \"#utility.yul\":8090:8114   */\n      tag_70\n      jump\t// in\n    tag_184:\n        /* \"#utility.yul\":8085:8088   */\n      dup3\n        /* \"#utility.yul\":8078:8115   */\n      mstore\n        /* \"#utility.yul\":7995:8121   */\n      pop\n      pop\n      jump\t// out\n        /* \"#utility.yul\":8127:8365   */\n    tag_29:\n        /* \"#utility.yul\":8228:8232   */\n      0x00\n        /* \"#utility.yul\":8266:8268   */\n      0x20\n        /* \"#utility.yul\":8255:8264   */\n      dup3\n        /* \"#utility.yul\":8251:8269   */\n      add\n        /* \"#utility.yul\":8243:8269   */\n      swap1\n      pop\n        /* \"#utility.yul\":8279:8358   */\n      tag_186\n        /* \"#utility.yul\":8355:8356   */\n      0x00\n        /* \"#utility.yul\":8344:8353   */\n      dup4\n        /* \"#utility.yul\":8340:8357   */\n      add\n        /* \"#utility.yul\":8331:8337   */\n      dup5\n        /* \"#utility.yul\":8279:8358   */\n      tag_92\n      jump\t// in\n    tag_186:\n        /* \"#utility.yul\":8127:8365   */\n      swap3\n      swap2\n      pop\n      pop\n      jump\t// out\n        /* \"#utility.yul\":8371:8551   */\n    tag_93:\n        /* \"#utility.yul\":8419:8496   */\n      0x4e487b7100000000000000000000000000000000000000000000000000000000\n        /* \"#utility.yul\":8416:8417   */\n      0x00\n        /* \"#utility.yul\":8409:8497   */\n      mstore\n        /* \"#utility.yul\":8516:8520   */\n      0x11\n        /* \"#utility.yul\":8513:8514   */\n      0x04\n        /* \"#utility.yul\":8506:8521   */\n      mstore\n        /* \"#utility.yul\":8540:8544   */\n      0x24\n        /* \"#utility.yul\":8537:8538   */\n      0x00\n        /* \"#utility.yul\":8530:8545   */\n      revert\n        /* \"#utility.yul\":8557:8751   */\n    tag_38:\n        /* \"#utility.yul\":8597:8601   */\n      0x00\n        /* \"#utility.yul\":8617:8637   */\n      tag_189\n        /* \"#utility.yul\":8635:8636   */\n      dup3\n        /* \"#utility.yul\":8617:8637   */\n      tag_70\n      jump\t// in\n    tag_189:\n        /* \"#utility.yul\":8612:8637   */\n      swap2\n      pop\n        /* \"#utility.yul\":8651:8671   */\n      tag_190\n        /* \"#utility.yul\":8669:8670   */\n      dup4\n        /* \"#utility.yul\":8651:8671   */\n      tag_70\n      jump\t// in\n    tag_190:\n        /* \"#utility.yul\":8646:8671   */\n      swap3\n      pop\n        /* \"#utility.yul\":8695:8696   */\n      dup3\n        /* \"#utility.yul\":8692:8693   */\n      dup3\n        /* \"#utility.yul\":8688:8697   */\n      sub\n        /* \"#utility.yul\":8680:8697   */\n      swap1\n      pop\n        /* \"#utility.yul\":8719:8720   */\n      dup2\n        /* \"#utility.yul\":8713:8717   */\n      dup2\n        /* \"#utility.yul\":8710:8721   */\n      gt\n        /* \"#utility.yul\":8707:8744   */\n      iszero\n      tag_191\n      jumpi\n        /* \"#utility.yul\":8724:8742   */\n      tag_192\n      tag_93\n      jump\t// in\n    tag_192:\n        /* \"#utility.yul\":8707:8744   */\n    tag_191:\n        /* \"#utility.yul\":8557:8751   */\n      swap3\n      swap2\n      pop\n      pop\n      jump\t// out\n        /* \"#utility.yul\":8757:8948   */\n    tag_40:\n        /* \"#utility.yul\":8797:8800   */\n      0x00\n        /* \"#utility.yul\":8816:8836   */\n      tag_194\n        /* \"#utility.yul\":8834:8835   */\n      dup3\n        /* \"#utility.yul\":8816:8836   */\n      tag_70\n      jump\t// in\n    tag_194:\n        /* \"#utility.yul\":8811:8836   */\n      swap2\n      pop\n        /* \"#utility.yul\":8850:8870   */\n      tag_195\n        /* \"#utility.yul\":8868:8869   */\n      dup4\n        /* \"#utility.yul\":8850:8870   */\n      tag_70\n      jump\t// in\n    tag_195:\n        /* \"#utility.yul\":8845:8870   */\n      swap3\n      pop\n        /* \"#utility.yul\":8893:8894   */\n      dup3\n        /* \"#utility.yul\":8890:8891   */\n      dup3\n        /* \"#utility.yul\":8886:8895   */\n      add\n        /* \"#utility.yul\":8879:8895   */\n      swap1\n      pop\n        /* \"#utility.yul\":8914:8917   */\n      dup1\n        /* \"#utility.yul\":8911:8912   */\n      dup3\n        /* \"#utility.yul\":8908:8918   */\n      gt\n        /* \"#utility.yul\":8905:8941   */\n      iszero\n      tag_196\n      jumpi\n        /* \"#utility.yul\":8921:8939   */\n      tag_197\n      tag_93\n      jump\t// in\n    tag_197:\n        /* \"#utility.yul\":8905:8941   */\n    tag_196:\n        /* \"#utility.yul\":8757:8948   */\n      swap3\n      swap2\n      pop\n      pop\n      jump\t// out\n        /* \"#utility.yul\":8954:9134   */\n    tag_43:\n        /* \"#utility.yul\":9002:9079   */\n      0x4e487b7100000000000000000000000000000000000000000000000000000000\n        /* \"#utility.yul\":8999:9000   */\n      0x00\n        /* \"#utility.yul\":8992:9080   */\n      mstore\n        /* \"#utility.yul\":9099:9103   */\n      0x32\n        /* \"#utility.yul\":9096:9097   */\n      0x04\n        /* \"#utility.yul\":9089:9104   */\n      mstore\n        /* \"#utility.yul\":9123:9127   */\n      0x24\n        /* \"#utility.yul\":9120:9121   */\n      0x00\n        /* \"#utility.yul\":9113:9128   */\n      revert\n        /* \"#utility.yul\":9140:9373   */\n    tag_49:\n        /* \"#utility.yul\":9179:9182   */\n      0x00\n        /* \"#utility.yul\":9202:9226   */\n      tag_200\n        /* \"#utility.yul\":9220:9225   */\n      dup3\n        /* \"#utility.yul\":9202:9226   */\n      tag_70\n      jump\t// in\n    tag_200:\n        /* \"#utility.yul\":9193:9226   */\n      swap2\n      pop\n        /* \"#utility.yul\":9248:9314   */\n      0xffffffffffffffffffffffffffffffffffffffffffffffffffffffffffffffff\n        /* \"#utility.yul\":9241:9246   */\n      dup3\n        /* \"#utility.yul\":9238:9315   */\n      sub\n        /* \"#utility.yul\":9235:9338   */\n      tag_201\n      jumpi\n        /* \"#utility.yul\":9318:9336   */\n      tag_202\n      tag_93\n      jump\t// in\n    tag_202:\n        /* \"#utility.yul\":9235:9338   */\n    tag_201:\n        /* \"#utility.yul\":9365:9366   */\n      0x01\n        /* \"#utility.yul\":9358:9363   */\n      dup3\n        /* \"#utility.yul\":9354:9367   */\n      add\n        /* \"#utility.yul\":9347:9367   */\n      swap1\n      pop\n        /* \"#utility.yul\":9140:9373   */\n      swap2\n      swap1\n      pop\n      jump\t// out\n        /* \"#utility.yul\":9379:9559   */\n    tag_52:\n        /* \"#utility.yul\":9427:9504   */\n      0x4e487b7100000000000000000000000000000000000000000000000000000000\n        /* \"#utility.yul\":9424:9425   */\n      0x00\n        /* \"#utility.yul\":9417:9505   */\n      mstore\n        /* \"#utility.yul\":9524:9528   */\n      0x31\n        /* \"#utility.yul\":9521:9522   */\n      0x04\n        /* \"#utility.yul\":9514:9529   */\n      mstore\n        /* \"#utility.yul\":9548:9552   */\n      0x24\n        /* \"#utility.yul\":9545:9546   */\n      0x00\n        /* \"#utility.yul\":9538:9553   */\n      revert\n        /* \"#utility.yul\":9565:9644   */\n    tag_94:\n        /* \"#utility.yul\":9604:9611   */\n      0x00\n        /* \"#utility.yul\":9633:9638   */\n      dup2\n        /* \"#utility.yul\":9622:9638   */\n      swap1\n      pop\n        /* \"#utility.yul\":9565:9644   */\n      swap2\n      swap1\n      pop\n      jump\t// out\n        /* \"#utility.yul\":9650:9807   */\n    tag_95:\n        /* \"#utility.yul\":9755:9800   */\n      tag_206\n        /* \"#utility.yul\":9775:9799   */\n      tag_207\n        /* \"#utility.yul\":9793:9798   */\n      dup3\n        /* \"#utility.yul\":9775:9799   */\n      tag_70\n      jump\t// in\n    tag_207:\n        /* \"#utility.yul\":9755:9800   */\n      tag_94\n      jump\t// in\n    tag_206:\n        /* \"#utility.yul\":9750:9753   */\n      dup3\n        /* \"#utility.yul\":9743:9801   */\n      mstore\n        /* \"#utility.yul\":9650:9807   */\n      pop\n      pop\n      jump\t// out\n        /* \"#utility.yul\":9813:10069   */\n    tag_58:\n        /* \"#utility.yul\":9925:9928   */\n      0x00\n        /* \"#utility.yul\":9940:10015   */\n      tag_209\n        /* \"#utility.yul\":10011:10014   */\n      dup3\n        /* \"#utility.yul\":10002:10008   */\n      dup5\n        /* \"#utility.yul\":9940:10015   */\n      tag_95\n      jump\t// in\n    tag_209:\n        /* \"#utility.yul\":10040:10042   */\n      0x20\n        /* \"#utility.yul\":10035:10038   */\n      dup3\n        /* \"#utility.yul\":10031:10043   */\n      add\n        /* \"#utility.yul\":10024:10043   */\n      swap2\n      pop\n        /* \"#utility.yul\":10060:10063   */\n      dup2\n        /* \"#utility.yul\":10053:10063   */\n      swap1\n      pop\n        /* \"#utility.yul\":9813:10069   */\n      swap3\n      swap2\n      pop\n      pop\n      jump\t// out\n        /* \"#utility.yul\":10075:10171   */\n    tag_96:\n        /* \"#utility.yul\":10133:10139   */\n      0x00\n        /* \"#utility.yul\":10161:10164   */\n      dup3\n        /* \"#utility.yul\":10151:10164   */\n      swap1\n      pop\n        /* \"#utility.yul\":10075:10171   */\n      swap3\n      swap2\n      pop\n      pop\n      jump\t// out\n        /* \"#utility.yul\":10269:10346   */\n    tag_98:\n        /* \"#utility.yul\":10306:10313   */\n      0x00\n        /* \"#utility.yul\":10335:10340   */\n      dup2\n        /* \"#utility.yul\":10324:10340   */\n      swap1\n      pop\n        /* \"#utility.yul\":10269:10346   */\n      swap2\n      swap1\n      pop\n      jump\t// out\n        /* \"#utility.yul\":10352:10459   */\n    tag_99:\n        /* \"#utility.yul\":10396:10404   */\n      0x00\n        /* \"#utility.yul\":10446:10451   */\n      dup3\n        /* \"#utility.yul\":10440:10444   */\n      dup3\n        /* \"#utility.yul\":10436:10452   */\n      shl\n        /* \"#utility.yul\":10415:10452   */\n      swap1\n      pop\n        /* \"#utility.yul\":10352:10459   */\n      swap3\n      swap2\n      pop\n      pop\n      jump\t// out\n        /* \"#utility.yul\":10465:11017   */\n    tag_63:\n        /* \"#utility.yul\":10556:10561   */\n      0x00\n        /* \"#utility.yul\":10587:10632   */\n      tag_215\n        /* \"#utility.yul\":10628:10631   */\n      dup4\n        /* \"#utility.yul\":10621:10626   */\n      dup4\n        /* \"#utility.yul\":10587:10632   */\n      tag_96\n      jump\t// in\n    tag_215:\n        /* \"#utility.yul\":10657:10662   */\n      dup3\n        /* \"#utility.yul\":10681:10722   */\n      tag_216\n        /* \"#utility.yul\":10712:10720   */\n      dup2\n        /* \"#utility.yul\":10699:10721   */\n      calldataload\n        /* \"#utility.yul\":10681:10722   */\n      tag_98\n      jump\t// in\n    tag_216:\n        /* \"#utility.yul\":10672:10722   */\n      swap3\n      pop\n        /* \"#utility.yul\":10746:10748   */\n      0x20\n        /* \"#utility.yul\":10738:10744   */\n      dup3\n        /* \"#utility.yul\":10735:10749   */\n      lt\n        /* \"#utility.yul\":10732:11010   */\n      iszero\n      tag_217\n      jumpi\n        /* \"#utility.yul\":10817:10986   */\n      tag_218\n        /* \"#utility.yul\":10902:10968   */\n      0xffffffffffffffffffffffffffffffffffffffffffffffffffffffffffffffff\n        /* \"#utility.yul\":10872:10878   */\n      dup4\n        /* \"#utility.yul\":10868:10870   */\n      0x20\n        /* \"#utility.yul\":10864:10879   */\n      sub\n        /* \"#utility.yul\":10861:10862   */\n      0x08\n        /* \"#utility.yul\":10857:10880   */\n      mul\n        /* \"#utility.yul\":10817:10986   */\n      tag_99\n      jump\t// in\n    tag_218:\n        /* \"#utility.yul\":10794:10799   */\n      dup4\n        /* \"#utility.yul\":10773:11000   */\n      and\n        /* \"#utility.yul\":10764:11000   */\n      swap3\n      pop\n        /* \"#utility.yul\":10732:11010   */\n    tag_217:\n        /* \"#utility.yul\":10562:11017   */\n      pop\n      pop\n        /* \"#utility.yul\":10465:11017   */\n      swap3\n      swap2\n      pop\n      pop\n      jump\t// out\n\n    auxdata: 0xa26469706673582212205269fcccf68e448982704a93c73a0a2f50c5a8fcdbbca7320b8de5088aedbe0464736f6c63430008120033\n}\n",
				"bytecode": {
					"linkReferences": {},
					"object": "6108f9610053600b82828239805160001a607314610046577f4e487b7100000000000000000000000000000000000000000000000000000000600052600060045260246000fd5b30600052607381538281f3fe73000000000000000000000000000000000000000030146080604052600436106100565760003560e01c8063677ca2d81461005b5780636900a3ae14610098578063775a8f5e146100c85780638529d576146100f8575b600080fd5b81801561006757600080fd5b50610082600480360381019061007d9190610377565b610128565b60405161008f9190610475565b60405180910390f35b6100b260048036038101906100ad9190610497565b610289565b6040516100bf9190610554565b60405180910390f35b6100e260048036038101906100dd9190610497565b6102b8565b6040516100ef91906105cb565b60405180910390f35b610112600480360381019061010d9190610652565b6102e7565b60405161011f91906106ae565b60405180910390f35b60608280549050821061018c578280548060200260200160405190810160405280929190818152602001828054801561018057602002820191906000526020600020905b81548152602001906001019080831161016c575b50505050509050610283565b60008290505b600184805490506101a391906106f8565b81101561020857836001826101b8919061072c565b815481106101c9576101c8610760565b5b90600052602060002001548482815481106101e7576101e6610760565b5b906000526020600020018190555080806102009061078f565b915050610192565b508280548061021a576102196107d7565b5b600190038181906000526020600020016000905590558280548060200260200160405190810160405280929190818152602001828054801561027b57602002820191906000526020600020905b815481526020019060010190808311610267575b505050505090505b92915050565b606060008260405160200161029e9190610827565b604051602081830303815290604052905080915050919050565b60606000826040516020016102cd9190610827565b604051602081830303815290604052905080915050919050565b60008282906102f69190610864565b60001c905092915050565b600080fd5b600080fd5b6000819050919050565b61031e8161030b565b811461032957600080fd5b50565b60008135905061033b81610315565b92915050565b6000819050919050565b61035481610341565b811461035f57600080fd5b50565b6000813590506103718161034b565b92915050565b6000806040838503121561038e5761038d610301565b5b600061039c8582860161032c565b92505060206103ad85828601610362565b9150509250929050565b600081519050919050565b600082825260208201905092915050565b6000819050602082019050919050565b6103ec81610341565b82525050565b60006103fe83836103e3565b60208301905092915050565b6000602082019050919050565b6000610422826103b7565b61042c81856103c2565b9350610437836103d3565b8060005b8381101561046857815161044f88826103f2565b975061045a8361040a565b92505060018101905061043b565b5085935050505092915050565b6000602082019050818103600083015261048f8184610417565b905092915050565b6000602082840312156104ad576104ac610301565b5b60006104bb84828501610362565b91505092915050565b600081519050919050565b600082825260208201905092915050565b60005b838110156104fe5780820151818401526020810190506104e3565b60008484015250505050565b6000601f19601f8301169050919050565b6000610526826104c4565b61053081856104cf565b93506105408185602086016104e0565b6105498161050a565b840191505092915050565b6000602082019050818103600083015261056e818461051b565b905092915050565b600081519050919050565b600082825260208201905092915050565b600061059d82610576565b6105a78185610581565b93506105b78185602086016104e0565b6105c08161050a565b840191505092915050565b600060208201905081810360008301526105e58184610592565b905092915050565b600080fd5b600080fd5b600080fd5b60008083601f840112610612576106116105ed565b5b8235905067ffffffffffffffff81111561062f5761062e6105f2565b5b60208301915083600182028301111561064b5761064a6105f7565b5b9250929050565b6000806020838503121561066957610668610301565b5b600083013567ffffffffffffffff81111561068757610686610306565b5b610693858286016105fc565b92509250509250929050565b6106a881610341565b82525050565b60006020820190506106c3600083018461069f565b92915050565b7f4e487b7100000000000000000000000000000000000000000000000000000000600052601160045260246000fd5b600061070382610341565b915061070e83610341565b9250828203905081811115610726576107256106c9565b5b92915050565b600061073782610341565b915061074283610341565b925082820190508082111561075a576107596106c9565b5b92915050565b7f4e487b7100000000000000000000000000000000000000000000000000000000600052603260045260246000fd5b600061079a82610341565b91507fffffffffffffffffffffffffffffffffffffffffffffffffffffffffffffffff82036107cc576107cb6106c9565b5b600182019050919050565b7f4e487b7100000000000000000000000000000000000000000000000000000000600052603160045260246000fd5b6000819050919050565b61082161081c82610341565b610806565b82525050565b60006108338284610810565b60208201915081905092915050565b600082905092915050565b6000819050919050565b600082821b905092915050565b60006108708383610842565b8261087b813561084d565b925060208210156108bb576108b67fffffffffffffffffffffffffffffffffffffffffffffffffffffffffffffffff83602003600802610857565b831692505b50509291505056fea26469706673582212205269fcccf68e448982704a93c73a0a2f50c5a8fcdbbca7320b8de5088aedbe0464736f6c63430008120033",
					"opcodes": "PUSH2 0x8F9 PUSH2 0x53 PUSH1 0xB DUP3 DUP3 DUP3 CODECOPY DUP1 MLOAD PUSH1 0x0 BYTE PUSH1 0x73 EQ PUSH2 0x46 JUMPI PUSH32 0x4E487B7100000000000000000000000000000000000000000000000000000000 PUSH1 0x0 MSTORE PUSH1 0x0 PUSH1 0x4 MSTORE PUSH1 0x24 PUSH1 0x0 REVERT JUMPDEST ADDRESS PUSH1 0x0 MSTORE PUSH1 0x73 DUP2 MSTORE8 DUP3 DUP2 RETURN INVALID PUSH20 0x0 ADDRESS EQ PUSH1 0x80 PUSH1 0x40 MSTORE PUSH1 0x4 CALLDATASIZE LT PUSH2 0x56 JUMPI PUSH1 0x0 CALLDATALOAD PUSH1 0xE0 SHR DUP1 PUSH4 0x677CA2D8 EQ PUSH2 0x5B JUMPI DUP1 PUSH4 0x6900A3AE EQ PUSH2 0x98 JUMPI DUP1 PUSH4 0x775A8F5E EQ PUSH2 0xC8 JUMPI DUP1 PUSH4 0x8529D576 EQ PUSH2 0xF8 JUMPI JUMPDEST PUSH1 0x0 DUP1 REVERT JUMPDEST DUP2 DUP1 ISZERO PUSH2 0x67 JUMPI PUSH1 0x0 DUP1 REVERT JUMPDEST POP PUSH2 0x82 PUSH1 0x4 DUP1 CALLDATASIZE SUB DUP2 ADD SWAP1 PUSH2 0x7D SWAP2 SWAP1 PUSH2 0x377 JUMP JUMPDEST PUSH2 0x128 JUMP JUMPDEST PUSH1 0x40 MLOAD PUSH2 0x8F SWAP2 SWAP1 PUSH2 0x475 JUMP JUMPDEST PUSH1 0x40 MLOAD DUP1 SWAP2 SUB SWAP1 RETURN JUMPDEST PUSH2 0xB2 PUSH1 0x4 DUP1 CALLDATASIZE SUB DUP2 ADD SWAP1 PUSH2 0xAD SWAP2 SWAP1 PUSH2 0x497 JUMP JUMPDEST PUSH2 0x289 JUMP JUMPDEST PUSH1 0x40 MLOAD PUSH2 0xBF SWAP2 SWAP1 PUSH2 0x554 JUMP JUMPDEST PUSH1 0x40 MLOAD DUP1 SWAP2 SUB SWAP1 RETURN JUMPDEST PUSH2 0xE2 PUSH1 0x4 DUP1 CALLDATASIZE SUB DUP2 ADD SWAP1 PUSH2 0xDD SWAP2 SWAP1 PUSH2 0x497 JUMP JUMPDEST PUSH2 0x2B8 JUMP JUMPDEST PUSH1 0x40 MLOAD PUSH2 0xEF SWAP2 SWAP1 PUSH2 0x5CB JUMP JUMPDEST PUSH1 0x40 MLOAD DUP1 SWAP2 SUB SWAP1 RETURN JUMPDEST PUSH2 0x112 PUSH1 0x4 DUP1 CALLDATASIZE SUB DUP2 ADD SWAP1 PUSH2 0x10D SWAP2 SWAP1 PUSH2 0x652 JUMP JUMPDEST PUSH2 0x2E7 JUMP JUMPDEST PUSH1 0x40 MLOAD PUSH2 0x11F SWAP2 SWAP1 PUSH2 0x6AE JUMP JUMPDEST PUSH1 0x40 MLOAD DUP1 SWAP2 SUB SWAP1 RETURN JUMPDEST PUSH1 0x60 DUP3 DUP1 SLOAD SWAP1 POP DUP3 LT PUSH2 0x18C JUMPI DUP3 DUP1 SLOAD DUP1 PUSH1 0x20 MUL PUSH1 0x20 ADD PUSH1 0x40 MLOAD SWAP1 DUP2 ADD PUSH1 0x40 MSTORE DUP1 SWAP3 SWAP2 SWAP1 DUP2 DUP2 MSTORE PUSH1 0x20 ADD DUP3 DUP1 SLOAD DUP1 ISZERO PUSH2 0x180 JUMPI PUSH1 0x20 MUL DUP3 ADD SWAP2 SWAP1 PUSH1 0x0 MSTORE PUSH1 0x20 PUSH1 0x0 KECCAK256 SWAP1 JUMPDEST DUP2 SLOAD DUP2 MSTORE PUSH1 0x20 ADD SWAP1 PUSH1 0x1 ADD SWAP1 DUP1 DUP4 GT PUSH2 0x16C JUMPI JUMPDEST POP POP POP POP POP SWAP1 POP PUSH2 0x283 JUMP JUMPDEST PUSH1 0x0 DUP3 SWAP1 POP JUMPDEST PUSH1 0x1 DUP5 DUP1 SLOAD SWAP1 POP PUSH2 0x1A3 SWAP2 SWAP1 PUSH2 0x6F8 JUMP JUMPDEST DUP2 LT ISZERO PUSH2 0x208 JUMPI DUP4 PUSH1 0x1 DUP3 PUSH2 0x1B8 SWAP2 SWAP1 PUSH2 0x72C JUMP JUMPDEST DUP2 SLOAD DUP2 LT PUSH2 0x1C9 JUMPI PUSH2 0x1C8 PUSH2 0x760 JUMP JUMPDEST JUMPDEST SWAP1 PUSH1 0x0 MSTORE PUSH1 0x20 PUSH1 0x0 KECCAK256 ADD SLOAD DUP5 DUP3 DUP2 SLOAD DUP2 LT PUSH2 0x1E7 JUMPI PUSH2 0x1E6 PUSH2 0x760 JUMP JUMPDEST JUMPDEST SWAP1 PUSH1 0x0 MSTORE PUSH1 0x20 PUSH1 0x0 KECCAK256 ADD DUP2 SWAP1 SSTORE POP DUP1 DUP1 PUSH2 0x200 SWAP1 PUSH2 0x78F JUMP JUMPDEST SWAP2 POP POP PUSH2 0x192 JUMP JUMPDEST POP DUP3 DUP1 SLOAD DUP1 PUSH2 0x21A JUMPI PUSH2 0x219 PUSH2 0x7D7 JUMP JUMPDEST JUMPDEST PUSH1 0x1 SWAP1 SUB DUP2 DUP2 SWAP1 PUSH1 0x0 MSTORE PUSH1 0x20 PUSH1 0x0 KECCAK256 ADD PUSH1 0x0 SWAP1 SSTORE SWAP1 SSTORE DUP3 DUP1 SLOAD DUP1 PUSH1 0x20 MUL PUSH1 0x20 ADD PUSH1 0x40 MLOAD SWAP1 DUP2 ADD PUSH1 0x40 MSTORE DUP1 SWAP3 SWAP2 SWAP1 DUP2 DUP2 MSTORE PUSH1 0x20 ADD DUP3 DUP1 SLOAD DUP1 ISZERO PUSH2 0x27B JUMPI PUSH1 0x20 MUL DUP3 ADD SWAP2 SWAP1 PUSH1 0x0 MSTORE PUSH1 0x20 PUSH1 0x0 KECCAK256 SWAP1 JUMPDEST DUP2 SLOAD DUP2 MSTORE PUSH1 0x20 ADD SWAP1 PUSH1 0x1 ADD SWAP1 DUP1 DUP4 GT PUSH2 0x267 JUMPI JUMPDEST POP POP POP POP POP SWAP1 POP JUMPDEST SWAP3 SWAP2 POP POP JUMP JUMPDEST PUSH1 0x60 PUSH1 0x0 DUP3 PUSH1 0x40 MLOAD PUSH1 0x20 ADD PUSH2 0x29E SWAP2 SWAP1 PUSH2 0x827 JUMP JUMPDEST PUSH1 0x40 MLOAD PUSH1 0x20 DUP2 DUP4 SUB SUB DUP2 MSTORE SWAP1 PUSH1 0x40 MSTORE SWAP1 POP DUP1 SWAP2 POP POP SWAP2 SWAP1 POP JUMP JUMPDEST PUSH1 0x60 PUSH1 0x0 DUP3 PUSH1 0x40 MLOAD PUSH1 0x20 ADD PUSH2 0x2CD SWAP2 SWAP1 PUSH2 0x827 JUMP JUMPDEST PUSH1 0x40 MLOAD PUSH1 0x20 DUP2 DUP4 SUB SUB DUP2 MSTORE SWAP1 PUSH1 0x40 MSTORE SWAP1 POP DUP1 SWAP2 POP POP SWAP2 SWAP1 POP JUMP JUMPDEST PUSH1 0x0 DUP3 DUP3 SWAP1 PUSH2 0x2F6 SWAP2 SWAP1 PUSH2 0x864 JUMP JUMPDEST PUSH1 0x0 SHR SWAP1 POP SWAP3 SWAP2 POP POP JUMP JUMPDEST PUSH1 0x0 DUP1 REVERT JUMPDEST PUSH1 0x0 DUP1 REVERT JUMPDEST PUSH1 0x0 DUP2 SWAP1 POP SWAP2 SWAP1 POP JUMP JUMPDEST PUSH2 0x31E DUP2 PUSH2 0x30B JUMP JUMPDEST DUP2 EQ PUSH2 0x329 JUMPI PUSH1 0x0 DUP1 REVERT JUMPDEST POP JUMP JUMPDEST PUSH1 0x0 DUP2 CALLDATALOAD SWAP1 POP PUSH2 0x33B DUP2 PUSH2 0x315 JUMP JUMPDEST SWAP3 SWAP2 POP POP JUMP JUMPDEST PUSH1 0x0 DUP2 SWAP1 POP SWAP2 SWAP1 POP JUMP JUMPDEST PUSH2 0x354 DUP2 PUSH2 0x341 JUMP JUMPDEST DUP2 EQ PUSH2 0x35F JUMPI PUSH1 0x0 DUP1 REVERT JUMPDEST POP JUMP JUMPDEST PUSH1 0x0 DUP2 CALLDATALOAD SWAP1 POP PUSH2 0x371 DUP2 PUSH2 0x34B JUMP JUMPDEST SWAP3 SWAP2 POP POP JUMP JUMPDEST PUSH1 0x0 DUP1 PUSH1 0x40 DUP4 DUP6 SUB SLT ISZERO PUSH2 0x38E JUMPI PUSH2 0x38D PUSH2 0x301 JUMP JUMPDEST JUMPDEST PUSH1 0x0 PUSH2 0x39C DUP6 DUP3 DUP7 ADD PUSH2 0x32C JUMP JUMPDEST SWAP3 POP POP PUSH1 0x20 PUSH2 0x3AD DUP6 DUP3 DUP7 ADD PUSH2 0x362 JUMP JUMPDEST SWAP2 POP POP SWAP3 POP SWAP3 SWAP1 POP JUMP JUMPDEST PUSH1 0x0 DUP2 MLOAD SWAP1 POP SWAP2 SWAP1 POP JUMP JUMPDEST PUSH1 0x0 DUP3 DUP3 MSTORE PUSH1 0x20 DUP3 ADD SWAP1 POP SWAP3 SWAP2 POP POP JUMP JUMPDEST PUSH1 0x0 DUP2 SWAP1 POP PUSH1 0x20 DUP3 ADD SWAP1 POP SWAP2 SWAP1 POP JUMP JUMPDEST PUSH2 0x3EC DUP2 PUSH2 0x341 JUMP JUMPDEST DUP3 MSTORE POP POP JUMP JUMPDEST PUSH1 0x0 PUSH2 0x3FE DUP4 DUP4 PUSH2 0x3E3 JUMP JUMPDEST PUSH1 0x20 DUP4 ADD SWAP1 POP SWAP3 SWAP2 POP POP JUMP JUMPDEST PUSH1 0x0 PUSH1 0x20 DUP3 ADD SWAP1 POP SWAP2 SWAP1 POP JUMP JUMPDEST PUSH1 0x0 PUSH2 0x422 DUP3 PUSH2 0x3B7 JUMP JUMPDEST PUSH2 0x42C DUP2 DUP6 PUSH2 0x3C2 JUMP JUMPDEST SWAP4 POP PUSH2 0x437 DUP4 PUSH2 0x3D3 JUMP JUMPDEST DUP1 PUSH1 0x0 JUMPDEST DUP4 DUP2 LT ISZERO PUSH2 0x468 JUMPI DUP2 MLOAD PUSH2 0x44F DUP9 DUP3 PUSH2 0x3F2 JUMP JUMPDEST SWAP8 POP PUSH2 0x45A DUP4 PUSH2 0x40A JUMP JUMPDEST SWAP3 POP POP PUSH1 0x1 DUP2 ADD SWAP1 POP PUSH2 0x43B JUMP JUMPDEST POP DUP6 SWAP4 POP POP POP POP SWAP3 SWAP2 POP POP JUMP JUMPDEST PUSH1 0x0 PUSH1 0x20 DUP3 ADD SWAP1 POP DUP2 DUP2 SUB PUSH1 0x0 DUP4 ADD MSTORE PUSH2 0x48F DUP2 DUP5 PUSH2 0x417 JUMP JUMPDEST SWAP1 POP SWAP3 SWAP2 POP POP JUMP JUMPDEST PUSH1 0x0 PUSH1 0x20 DUP3 DUP5 SUB SLT ISZERO PUSH2 0x4AD JUMPI PUSH2 0x4AC PUSH2 0x301 JUMP JUMPDEST JUMPDEST PUSH1 0x0 PUSH2 0x4BB DUP5 DUP3 DUP6 ADD PUSH2 0x362 JUMP JUMPDEST SWAP2 POP POP SWAP3 SWAP2 POP POP JUMP JUMPDEST PUSH1 0x0 DUP2 MLOAD SWAP1 POP SWAP2 SWAP1 POP JUMP JUMPDEST PUSH1 0x0 DUP3 DUP3 MSTORE PUSH1 0x20 DUP3 ADD SWAP1 POP SWAP3 SWAP2 POP POP JUMP JUMPDEST PUSH1 0x0 JUMPDEST DUP4 DUP2 LT ISZERO PUSH2 0x4FE JUMPI DUP1 DUP3 ADD MLOAD DUP2 DUP5 ADD MSTORE PUSH1 0x20 DUP2 ADD SWAP1 POP PUSH2 0x4E3 JUMP JUMPDEST PUSH1 0x0 DUP5 DUP5 ADD MSTORE POP POP POP POP JUMP JUMPDEST PUSH1 0x0 PUSH1 0x1F NOT PUSH1 0x1F DUP4 ADD AND SWAP1 POP SWAP2 SWAP1 POP JUMP JUMPDEST PUSH1 0x0 PUSH2 0x526 DUP3 PUSH2 0x4C4 JUMP JUMPDEST PUSH2 0x530 DUP2 DUP6 PUSH2 0x4CF JUMP JUMPDEST SWAP4 POP PUSH2 0x540 DUP2 DUP6 PUSH1 0x20 DUP7 ADD PUSH2 0x4E0 JUMP JUMPDEST PUSH2 0x549 DUP2 PUSH2 0x50A JUMP JUMPDEST DUP5 ADD SWAP2 POP POP SWAP3 SWAP2 POP POP JUMP JUMPDEST PUSH1 0x0 PUSH1 0x20 DUP3 ADD SWAP1 POP DUP2 DUP2 SUB PUSH1 0x0 DUP4 ADD MSTORE PUSH2 0x56E DUP2 DUP5 PUSH2 0x51B JUMP JUMPDEST SWAP1 POP SWAP3 SWAP2 POP POP JUMP JUMPDEST PUSH1 0x0 DUP2 MLOAD SWAP1 POP SWAP2 SWAP1 POP JUMP JUMPDEST PUSH1 0x0 DUP3 DUP3 MSTORE PUSH1 0x20 DUP3 ADD SWAP1 POP SWAP3 SWAP2 POP POP JUMP JUMPDEST PUSH1 0x0 PUSH2 0x59D DUP3 PUSH2 0x576 JUMP JUMPDEST PUSH2 0x5A7 DUP2 DUP6 PUSH2 0x581 JUMP JUMPDEST SWAP4 POP PUSH2 0x5B7 DUP2 DUP6 PUSH1 0x20 DUP7 ADD PUSH2 0x4E0 JUMP JUMPDEST PUSH2 0x5C0 DUP2 PUSH2 0x50A JUMP JUMPDEST DUP5 ADD SWAP2 POP POP SWAP3 SWAP2 POP POP JUMP JUMPDEST PUSH1 0x0 PUSH1 0x20 DUP3 ADD SWAP1 POP DUP2 DUP2 SUB PUSH1 0x0 DUP4 ADD MSTORE PUSH2 0x5E5 DUP2 DUP5 PUSH2 0x592 JUMP JUMPDEST SWAP1 POP SWAP3 SWAP2 POP POP JUMP JUMPDEST PUSH1 0x0 DUP1 REVERT JUMPDEST PUSH1 0x0 DUP1 REVERT JUMPDEST PUSH1 0x0 DUP1 REVERT JUMPDEST PUSH1 0x0 DUP1 DUP4 PUSH1 0x1F DUP5 ADD SLT PUSH2 0x612 JUMPI PUSH2 0x611 PUSH2 0x5ED JUMP JUMPDEST JUMPDEST DUP3 CALLDATALOAD SWAP1 POP PUSH8 0xFFFFFFFFFFFFFFFF DUP2 GT ISZERO PUSH2 0x62F JUMPI PUSH2 0x62E PUSH2 0x5F2 JUMP JUMPDEST JUMPDEST PUSH1 0x20 DUP4 ADD SWAP2 POP DUP4 PUSH1 0x1 DUP3 MUL DUP4 ADD GT ISZERO PUSH2 0x64B JUMPI PUSH2 0x64A PUSH2 0x5F7 JUMP JUMPDEST JUMPDEST SWAP3 POP SWAP3 SWAP1 POP JUMP JUMPDEST PUSH1 0x0 DUP1 PUSH1 0x20 DUP4 DUP6 SUB SLT ISZERO PUSH2 0x669 JUMPI PUSH2 0x668 PUSH2 0x301 JUMP JUMPDEST JUMPDEST PUSH1 0x0 DUP4 ADD CALLDATALOAD PUSH8 0xFFFFFFFFFFFFFFFF DUP2 GT ISZERO PUSH2 0x687 JUMPI PUSH2 0x686 PUSH2 0x306 JUMP JUMPDEST JUMPDEST PUSH2 0x693 DUP6 DUP3 DUP7 ADD PUSH2 0x5FC JUMP JUMPDEST SWAP3 POP SWAP3 POP POP SWAP3 POP SWAP3 SWAP1 POP JUMP JUMPDEST PUSH2 0x6A8 DUP2 PUSH2 0x341 JUMP JUMPDEST DUP3 MSTORE POP POP JUMP JUMPDEST PUSH1 0x0 PUSH1 0x20 DUP3 ADD SWAP1 POP PUSH2 0x6C3 PUSH1 0x0 DUP4 ADD DUP5 PUSH2 0x69F JUMP JUMPDEST SWAP3 SWAP2 POP POP JUMP JUMPDEST PUSH32 0x4E487B7100000000000000000000000000000000000000000000000000000000 PUSH1 0x0 MSTORE PUSH1 0x11 PUSH1 0x4 MSTORE PUSH1 0x24 PUSH1 0x0 REVERT JUMPDEST PUSH1 0x0 PUSH2 0x703 DUP3 PUSH2 0x341 JUMP JUMPDEST SWAP2 POP PUSH2 0x70E DUP4 PUSH2 0x341 JUMP JUMPDEST SWAP3 POP DUP3 DUP3 SUB SWAP1 POP DUP2 DUP2 GT ISZERO PUSH2 0x726 JUMPI PUSH2 0x725 PUSH2 0x6C9 JUMP JUMPDEST JUMPDEST SWAP3 SWAP2 POP POP JUMP JUMPDEST PUSH1 0x0 PUSH2 0x737 DUP3 PUSH2 0x341 JUMP JUMPDEST SWAP2 POP PUSH2 0x742 DUP4 PUSH2 0x341 JUMP JUMPDEST SWAP3 POP DUP3 DUP3 ADD SWAP1 POP DUP1 DUP3 GT ISZERO PUSH2 0x75A JUMPI PUSH2 0x759 PUSH2 0x6C9 JUMP JUMPDEST JUMPDEST SWAP3 SWAP2 POP POP JUMP JUMPDEST PUSH32 0x4E487B7100000000000000000000000000000000000000000000000000000000 PUSH1 0x0 MSTORE PUSH1 0x32 PUSH1 0x4 MSTORE PUSH1 0x24 PUSH1 0x0 REVERT JUMPDEST PUSH1 0x0 PUSH2 0x79A DUP3 PUSH2 0x341 JUMP JUMPDEST SWAP2 POP PUSH32 0xFFFFFFFFFFFFFFFFFFFFFFFFFFFFFFFFFFFFFFFFFFFFFFFFFFFFFFFFFFFFFFFF DUP3 SUB PUSH2 0x7CC JUMPI PUSH2 0x7CB PUSH2 0x6C9 JUMP JUMPDEST JUMPDEST PUSH1 0x1 DUP3 ADD SWAP1 POP SWAP2 SWAP1 POP JUMP JUMPDEST PUSH32 0x4E487B7100000000000000000000000000000000000000000000000000000000 PUSH1 0x0 MSTORE PUSH1 0x31 PUSH1 0x4 MSTORE PUSH1 0x24 PUSH1 0x0 REVERT JUMPDEST PUSH1 0x0 DUP2 SWAP1 POP SWAP2 SWAP1 POP JUMP JUMPDEST PUSH2 0x821 PUSH2 0x81C DUP3 PUSH2 0x341 JUMP JUMPDEST PUSH2 0x806 JUMP JUMPDEST DUP3 MSTORE POP POP JUMP JUMPDEST PUSH1 0x0 PUSH2 0x833 DUP3 DUP5 PUSH2 0x810 JUMP JUMPDEST PUSH1 0x20 DUP3 ADD SWAP2 POP DUP2 SWAP1 POP SWAP3 SWAP2 POP POP JUMP JUMPDEST PUSH1 0x0 DUP3 SWAP1 POP SWAP3 SWAP2 POP POP JUMP JUMPDEST PUSH1 0x0 DUP2 SWAP1 POP SWAP2 SWAP1 POP JUMP JUMPDEST PUSH1 0x0 DUP3 DUP3 SHL SWAP1 POP SWAP3 SWAP2 POP POP JUMP JUMPDEST PUSH1 0x0 PUSH2 0x870 DUP4 DUP4 PUSH2 0x842 JUMP JUMPDEST DUP3 PUSH2 0x87B DUP2 CALLDATALOAD PUSH2 0x84D JUMP JUMPDEST SWAP3 POP PUSH1 0x20 DUP3 LT ISZERO PUSH2 0x8BB JUMPI PUSH2 0x8B6 PUSH32 0xFFFFFFFFFFFFFFFFFFFFFFFFFFFFFFFFFFFFFFFFFFFFFFFFFFFFFFFFFFFFFFFF DUP4 PUSH1 0x20 SUB PUSH1 0x8 MUL PUSH2 0x857 JUMP JUMPDEST DUP4 AND SWAP3 POP JUMPDEST POP POP SWAP3 SWAP2 POP POP JUMP INVALID LOG2 PUSH5 0x6970667358 0x22 SLT KECCAK256 MSTORE PUSH10 0xFCCCF68E448982704A93 0xC7 GASPRICE EXP 0x2F POP 0xC5 0xA8 0xFC 0xDB 0xBC 0xA7 ORIGIN SIGNEXTEND DUP14 0xE5 ADDMOD DUP11 0xED 0xBE DIV PUSH5 0x736F6C6343 STOP ADDMOD SLT STOP CALLER "
				},
				"gasEstimates": {
					"creation": {
						"codeDepositCost": "459400",
						"executionCost": "521",
						"totalCost": "459921"
					},
					"external": {
						"remove(uint256[] storage,uint256)": "infinite",
						"toBytes(uint256)": "infinite",
						"toString(uint256)": "infinite",
						"toUint(bytes)": "973"
					}
				},
				"methodIdentifiers": {
					"remove(uint256[] storage,uint256)": "677ca2d8",
					"toBytes(uint256)": "775a8f5e",
					"toString(uint256)": "6900a3ae",
					"toUint(bytes)": "8529d576"
				}
			},
			"storageLayout": {
				"storage": [],
				"types": null
			},
			"userdoc": {
				"kind": "user",
				"methods": {},
				"version": 1
			}
		}
	}
}