{
	"contracts/test.sol": {
		"Test": {
			"abi": [
				{
					"inputs": [
						{
							"internalType": "uint256",
							"name": "number",
							"type": "uint256"
						}
					],
					"name": "toBytes",
					"outputs": [
						{
							"internalType": "bytes",
							"name": "",
							"type": "bytes"
						}
					],
					"stateMutability": "pure",
					"type": "function"
				},
				{
					"inputs": [
						{
							"internalType": "uint256",
							"name": "number",
							"type": "uint256"
						}
					],
					"name": "toString",
					"outputs": [
						{
							"internalType": "string",
							"name": "",
							"type": "string"
						}
					],
					"stateMutability": "pure",
					"type": "function"
				},
				{
					"inputs": [
						{
							"internalType": "uint256",
							"name": "number",
							"type": "uint256"
						}
					],
					"name": "toUint",
					"outputs": [
						{
							"internalType": "uint256",
							"name": "",
							"type": "uint256"
						}
					],
					"stateMutability": "pure",
					"type": "function"
				}
			],
			"devdoc": {
				"kind": "dev",
				"methods": {},
				"version": 1
			},
			"evm": {
				"assembly": "    /* \"contracts/test.sol\":57:626  library Test {... */\n  dataSize(sub_0)\n  dataOffset(sub_0)\n  0x0b\n  dup3\n  dup3\n  dup3\n  codecopy\n  dup1\n  mload\n  0x00\n  byte\n  0x73\n  eq\n  tag_1\n  jumpi\n  mstore(0x00, 0x4e487b7100000000000000000000000000000000000000000000000000000000)\n  mstore(0x04, 0x00)\n  revert(0x00, 0x24)\ntag_1:\n  mstore(0x00, address)\n  0x73\n  dup2\n  mstore8\n  dup3\n  dup2\n  return\nstop\n\nsub_0: assembly {\n        /* \"contracts/test.sol\":57:626  library Test {... */\n      eq(address, deployTimeAddress())\n      mstore(0x40, 0x80)\n      jumpi(tag_1, lt(calldatasize, 0x04))\n      shr(0xe0, calldataload(0x00))\n      dup1\n      0x57f5c63c\n      eq\n      tag_2\n      jumpi\n      dup1\n      0x6900a3ae\n      eq\n      tag_3\n      jumpi\n      dup1\n      0x775a8f5e\n      eq\n      tag_4\n      jumpi\n    tag_1:\n      0x00\n      dup1\n      revert\n        /* \"contracts/test.sol\":435:624  function toUint(uint256 number) public pure returns (uint256) {... */\n    tag_2:\n      tag_5\n      0x04\n      dup1\n      calldatasize\n      sub\n      dup2\n      add\n      swap1\n      tag_6\n      swap2\n      swap1\n      tag_7\n      jump\t// in\n    tag_6:\n      tag_8\n      jump\t// in\n    tag_5:\n      mload(0x40)\n      tag_9\n      swap2\n      swap1\n      tag_10\n      jump\t// in\n    tag_9:\n      mload(0x40)\n      dup1\n      swap2\n      sub\n      swap1\n      return\n        /* \"contracts/test.sol\":251:429  function toString(uint256 number) public pure returns (string memory) {... */\n    tag_3:\n      tag_11\n      0x04\n      dup1\n      calldatasize\n      sub\n      dup2\n      add\n      swap1\n      tag_12\n      swap2\n      swap1\n      tag_7\n      jump\t// in\n    tag_12:\n      tag_13\n      jump\t// in\n    tag_11:\n      mload(0x40)\n      tag_14\n      swap2\n      swap1\n      tag_15\n      jump\t// in\n    tag_14:\n      mload(0x40)\n      dup1\n      swap2\n      sub\n      swap1\n      return\n        /* \"contracts/test.sol\":77:245  function toBytes(uint256 number) public pure returns (bytes memory) {... */\n    tag_4:\n      tag_16\n      0x04\n      dup1\n      calldatasize\n      sub\n      dup2\n      add\n      swap1\n      tag_17\n      swap2\n      swap1\n      tag_7\n      jump\t// in\n    tag_17:\n      tag_18\n      jump\t// in\n    tag_16:\n      mload(0x40)\n      tag_19\n      swap2\n      swap1\n      tag_20\n      jump\t// in\n    tag_19:\n      mload(0x40)\n      dup1\n      swap2\n      sub\n      swap1\n      return\n        /* \"contracts/test.sol\":435:624  function toUint(uint256 number) public pure returns (uint256) {... */\n    tag_8:\n        /* \"contracts/test.sol\":488:495  uint256 */\n      0x00\n        /* \"contracts/test.sol\":507:533  bytes memory numberInBytes */\n      dup1\n        /* \"contracts/test.sol\":553:559  number */\n      dup3\n        /* \"contracts/test.sol\":536:560  abi.encodePacked(number) */\n      add(0x20, mload(0x40))\n      tag_22\n      swap2\n      swap1\n      tag_23\n      jump\t// in\n    tag_22:\n      mload(0x40)\n      0x20\n      dup2\n      dup4\n      sub\n      sub\n      dup2\n      mstore\n      swap1\n      0x40\n      mstore\n        /* \"contracts/test.sol\":507:560  bytes memory numberInBytes = abi.encodePacked(number) */\n      swap1\n      pop\n        /* \"contracts/test.sol\":602:615  numberInBytes */\n      dup1\n        /* \"contracts/test.sol\":594:616  bytes32(numberInBytes) */\n      tag_24\n      swap1\n      tag_25\n      jump\t// in\n    tag_24:\n        /* \"contracts/test.sol\":586:617  uint256(bytes32(numberInBytes)) */\n      0x00\n      shr\n        /* \"contracts/test.sol\":579:617  return uint256(bytes32(numberInBytes)) */\n      swap2\n      pop\n      pop\n        /* \"contracts/test.sol\":435:624  function toUint(uint256 number) public pure returns (uint256) {... */\n      swap2\n      swap1\n      pop\n      jump\t// out\n        /* \"contracts/test.sol\":251:429  function toString(uint256 number) public pure returns (string memory) {... */\n    tag_13:\n        /* \"contracts/test.sol\":306:319  string memory */\n      0x60\n        /* \"contracts/test.sol\":331:357  bytes memory numberInBytes */\n      0x00\n        /* \"contracts/test.sol\":377:383  number */\n      dup3\n        /* \"contracts/test.sol\":360:384  abi.encodePacked(number) */\n      add(0x20, mload(0x40))\n      tag_27\n      swap2\n      swap1\n      tag_23\n      jump\t// in\n    tag_27:\n      mload(0x40)\n      0x20\n      dup2\n      dup4\n      sub\n      sub\n      dup2\n      mstore\n      swap1\n      0x40\n      mstore\n        /* \"contracts/test.sol\":331:384  bytes memory numberInBytes = abi.encodePacked(number) */\n      swap1\n      pop\n        /* \"contracts/test.sol\":408:421  numberInBytes */\n      dup1\n        /* \"contracts/test.sol\":394:422  return string(numberInBytes) */\n      swap2\n      pop\n      pop\n        /* \"contracts/test.sol\":251:429  function toString(uint256 number) public pure returns (string memory) {... */\n      swap2\n      swap1\n      pop\n      jump\t// out\n        /* \"contracts/test.sol\":77:245  function toBytes(uint256 number) public pure returns (bytes memory) {... */\n    tag_18:\n        /* \"contracts/test.sol\":131:143  bytes memory */\n      0x60\n        /* \"contracts/test.sol\":155:181  bytes memory numberInBytes */\n      0x00\n        /* \"contracts/test.sol\":201:207  number */\n      dup3\n        /* \"contracts/test.sol\":184:208  abi.encodePacked(number) */\n      add(0x20, mload(0x40))\n      tag_29\n      swap2\n      swap1\n      tag_23\n      jump\t// in\n    tag_29:\n      mload(0x40)\n      0x20\n      dup2\n      dup4\n      sub\n      sub\n      dup2\n      mstore\n      swap1\n      0x40\n      mstore\n        /* \"contracts/test.sol\":155:208  bytes memory numberInBytes = abi.encodePacked(number) */\n      swap1\n      pop\n        /* \"contracts/test.sol\":225:238  numberInBytes */\n      dup1\n        /* \"contracts/test.sol\":218:238  return numberInBytes */\n      swap2\n      pop\n      pop\n        /* \"contracts/test.sol\":77:245  function toBytes(uint256 number) public pure returns (bytes memory) {... */\n      swap2\n      swap1\n      pop\n      jump\t// out\n        /* \"#utility.yul\":88:205   */\n    tag_31:\n        /* \"#utility.yul\":197:198   */\n      0x00\n        /* \"#utility.yul\":194:195   */\n      dup1\n        /* \"#utility.yul\":187:199   */\n      revert\n        /* \"#utility.yul\":334:411   */\n    tag_33:\n        /* \"#utility.yul\":371:378   */\n      0x00\n        /* \"#utility.yul\":400:405   */\n      dup2\n        /* \"#utility.yul\":389:405   */\n      swap1\n      pop\n        /* \"#utility.yul\":334:411   */\n      swap2\n      swap1\n      pop\n      jump\t// out\n        /* \"#utility.yul\":417:539   */\n    tag_34:\n        /* \"#utility.yul\":490:514   */\n      tag_57\n        /* \"#utility.yul\":508:513   */\n      dup2\n        /* \"#utility.yul\":490:514   */\n      tag_33\n      jump\t// in\n    tag_57:\n        /* \"#utility.yul\":483:488   */\n      dup2\n        /* \"#utility.yul\":480:515   */\n      eq\n        /* \"#utility.yul\":470:533   */\n      tag_58\n      jumpi\n        /* \"#utility.yul\":529:530   */\n      0x00\n        /* \"#utility.yul\":526:527   */\n      dup1\n        /* \"#utility.yul\":519:531   */\n      revert\n        /* \"#utility.yul\":470:533   */\n    tag_58:\n        /* \"#utility.yul\":417:539   */\n      pop\n      jump\t// out\n        /* \"#utility.yul\":545:684   */\n    tag_35:\n        /* \"#utility.yul\":591:596   */\n      0x00\n        /* \"#utility.yul\":629:635   */\n      dup2\n        /* \"#utility.yul\":616:636   */\n      calldataload\n        /* \"#utility.yul\":607:636   */\n      swap1\n      pop\n        /* \"#utility.yul\":645:678   */\n      tag_60\n        /* \"#utility.yul\":672:677   */\n      dup2\n        /* \"#utility.yul\":645:678   */\n      tag_34\n      jump\t// in\n    tag_60:\n        /* \"#utility.yul\":545:684   */\n      swap3\n      swap2\n      pop\n      pop\n      jump\t// out\n        /* \"#utility.yul\":690:1019   */\n    tag_7:\n        /* \"#utility.yul\":749:755   */\n      0x00\n        /* \"#utility.yul\":798:800   */\n      0x20\n        /* \"#utility.yul\":786:795   */\n      dup3\n        /* \"#utility.yul\":777:784   */\n      dup5\n        /* \"#utility.yul\":773:796   */\n      sub\n        /* \"#utility.yul\":769:801   */\n      slt\n        /* \"#utility.yul\":766:885   */\n      iszero\n      tag_62\n      jumpi\n        /* \"#utility.yul\":804:883   */\n      tag_63\n      tag_31\n      jump\t// in\n    tag_63:\n        /* \"#utility.yul\":766:885   */\n    tag_62:\n        /* \"#utility.yul\":924:925   */\n      0x00\n        /* \"#utility.yul\":949:1002   */\n      tag_64\n        /* \"#utility.yul\":994:1001   */\n      dup5\n        /* \"#utility.yul\":985:991   */\n      dup3\n        /* \"#utility.yul\":974:983   */\n      dup6\n        /* \"#utility.yul\":970:992   */\n      add\n        /* \"#utility.yul\":949:1002   */\n      tag_35\n      jump\t// in\n    tag_64:\n        /* \"#utility.yul\":939:1002   */\n      swap2\n      pop\n        /* \"#utility.yul\":895:1012   */\n      pop\n        /* \"#utility.yul\":690:1019   */\n      swap3\n      swap2\n      pop\n      pop\n      jump\t// out\n        /* \"#utility.yul\":1025:1151   */\n    tag_36:\n        /* \"#utility.yul\":1120:1144   */\n      tag_66\n        /* \"#utility.yul\":1138:1143   */\n      dup2\n        /* \"#utility.yul\":1120:1144   */\n      tag_33\n      jump\t// in\n    tag_66:\n        /* \"#utility.yul\":1115:1118   */\n      dup3\n        /* \"#utility.yul\":1108:1145   */\n      mstore\n        /* \"#utility.yul\":1025:1151   */\n      pop\n      pop\n      jump\t// out\n        /* \"#utility.yul\":1157:1395   */\n    tag_10:\n        /* \"#utility.yul\":1258:1262   */\n      0x00\n        /* \"#utility.yul\":1296:1298   */\n      0x20\n        /* \"#utility.yul\":1285:1294   */\n      dup3\n        /* \"#utility.yul\":1281:1299   */\n      add\n        /* \"#utility.yul\":1273:1299   */\n      swap1\n      pop\n        /* \"#utility.yul\":1309:1388   */\n      tag_68\n        /* \"#utility.yul\":1385:1386   */\n      0x00\n        /* \"#utility.yul\":1374:1383   */\n      dup4\n        /* \"#utility.yul\":1370:1387   */\n      add\n        /* \"#utility.yul\":1361:1367   */\n      dup5\n        /* \"#utility.yul\":1309:1388   */\n      tag_36\n      jump\t// in\n    tag_68:\n        /* \"#utility.yul\":1157:1395   */\n      swap3\n      swap2\n      pop\n      pop\n      jump\t// out\n        /* \"#utility.yul\":1401:1500   */\n    tag_37:\n        /* \"#utility.yul\":1453:1459   */\n      0x00\n        /* \"#utility.yul\":1487:1492   */\n      dup2\n        /* \"#utility.yul\":1481:1493   */\n      mload\n        /* \"#utility.yul\":1471:1493   */\n      swap1\n      pop\n        /* \"#utility.yul\":1401:1500   */\n      swap2\n      swap1\n      pop\n      jump\t// out\n        /* \"#utility.yul\":1506:1683   */\n    tag_38:\n        /* \"#utility.yul\":1598:1609   */\n      0x00\n        /* \"#utility.yul\":1632:1638   */\n      dup3\n        /* \"#utility.yul\":1627:1630   */\n      dup3\n        /* \"#utility.yul\":1620:1639   */\n      mstore\n        /* \"#utility.yul\":1672:1676   */\n      0x20\n        /* \"#utility.yul\":1667:1670   */\n      dup3\n        /* \"#utility.yul\":1663:1677   */\n      add\n        /* \"#utility.yul\":1648:1677   */\n      swap1\n      pop\n        /* \"#utility.yul\":1506:1683   */\n      swap3\n      swap2\n      pop\n      pop\n      jump\t// out\n        /* \"#utility.yul\":1689:1935   */\n    tag_39:\n        /* \"#utility.yul\":1770:1771   */\n      0x00\n        /* \"#utility.yul\":1780:1893   */\n    tag_72:\n        /* \"#utility.yul\":1794:1800   */\n      dup4\n        /* \"#utility.yul\":1791:1792   */\n      dup2\n        /* \"#utility.yul\":1788:1801   */\n      lt\n        /* \"#utility.yul\":1780:1893   */\n      iszero\n      tag_74\n      jumpi\n        /* \"#utility.yul\":1879:1880   */\n      dup1\n        /* \"#utility.yul\":1874:1877   */\n      dup3\n        /* \"#utility.yul\":1870:1881   */\n      add\n        /* \"#utility.yul\":1864:1882   */\n      mload\n        /* \"#utility.yul\":1860:1861   */\n      dup2\n        /* \"#utility.yul\":1855:1858   */\n      dup5\n        /* \"#utility.yul\":1851:1862   */\n      add\n        /* \"#utility.yul\":1844:1883   */\n      mstore\n        /* \"#utility.yul\":1816:1818   */\n      0x20\n        /* \"#utility.yul\":1813:1814   */\n      dup2\n        /* \"#utility.yul\":1809:1819   */\n      add\n        /* \"#utility.yul\":1804:1819   */\n      swap1\n      pop\n        /* \"#utility.yul\":1780:1893   */\n      jump(tag_72)\n    tag_74:\n        /* \"#utility.yul\":1927:1928   */\n      0x00\n        /* \"#utility.yul\":1918:1924   */\n      dup5\n        /* \"#utility.yul\":1913:1916   */\n      dup5\n        /* \"#utility.yul\":1909:1925   */\n      add\n        /* \"#utility.yul\":1902:1929   */\n      mstore\n        /* \"#utility.yul\":1751:1935   */\n      pop\n        /* \"#utility.yul\":1689:1935   */\n      pop\n      pop\n      pop\n      jump\t// out\n        /* \"#utility.yul\":1941:2043   */\n    tag_40:\n        /* \"#utility.yul\":1982:1988   */\n      0x00\n        /* \"#utility.yul\":2033:2035   */\n      0x1f\n        /* \"#utility.yul\":2029:2036   */\n      not\n        /* \"#utility.yul\":2024:2026   */\n      0x1f\n        /* \"#utility.yul\":2017:2022   */\n      dup4\n        /* \"#utility.yul\":2013:2027   */\n      add\n        /* \"#utility.yul\":2009:2037   */\n      and\n        /* \"#utility.yul\":1999:2037   */\n      swap1\n      pop\n        /* \"#utility.yul\":1941:2043   */\n      swap2\n      swap1\n      pop\n      jump\t// out\n        /* \"#utility.yul\":2049:2442   */\n    tag_41:\n        /* \"#utility.yul\":2145:2148   */\n      0x00\n        /* \"#utility.yul\":2173:2212   */\n      tag_77\n        /* \"#utility.yul\":2206:2211   */\n      dup3\n        /* \"#utility.yul\":2173:2212   */\n      tag_37\n      jump\t// in\n    tag_77:\n        /* \"#utility.yul\":2228:2307   */\n      tag_78\n        /* \"#utility.yul\":2300:2306   */\n      dup2\n        /* \"#utility.yul\":2295:2298   */\n      dup6\n        /* \"#utility.yul\":2228:2307   */\n      tag_38\n      jump\t// in\n    tag_78:\n        /* \"#utility.yul\":2221:2307   */\n      swap4\n      pop\n        /* \"#utility.yul\":2316:2381   */\n      tag_79\n        /* \"#utility.yul\":2374:2380   */\n      dup2\n        /* \"#utility.yul\":2369:2372   */\n      dup6\n        /* \"#utility.yul\":2362:2366   */\n      0x20\n        /* \"#utility.yul\":2355:2360   */\n      dup7\n        /* \"#utility.yul\":2351:2367   */\n      add\n        /* \"#utility.yul\":2316:2381   */\n      tag_39\n      jump\t// in\n    tag_79:\n        /* \"#utility.yul\":2406:2435   */\n      tag_80\n        /* \"#utility.yul\":2428:2434   */\n      dup2\n        /* \"#utility.yul\":2406:2435   */\n      tag_40\n      jump\t// in\n    tag_80:\n        /* \"#utility.yul\":2401:2404   */\n      dup5\n        /* \"#utility.yul\":2397:2436   */\n      add\n        /* \"#utility.yul\":2390:2436   */\n      swap2\n      pop\n        /* \"#utility.yul\":2149:2442   */\n      pop\n        /* \"#utility.yul\":2049:2442   */\n      swap3\n      swap2\n      pop\n      pop\n      jump\t// out\n        /* \"#utility.yul\":2448:2777   */\n    tag_15:\n        /* \"#utility.yul\":2569:2573   */\n      0x00\n        /* \"#utility.yul\":2607:2609   */\n      0x20\n        /* \"#utility.yul\":2596:2605   */\n      dup3\n        /* \"#utility.yul\":2592:2610   */\n      add\n        /* \"#utility.yul\":2584:2610   */\n      swap1\n      pop\n        /* \"#utility.yul\":2656:2665   */\n      dup2\n        /* \"#utility.yul\":2650:2654   */\n      dup2\n        /* \"#utility.yul\":2646:2666   */\n      sub\n        /* \"#utility.yul\":2642:2643   */\n      0x00\n        /* \"#utility.yul\":2631:2640   */\n      dup4\n        /* \"#utility.yul\":2627:2644   */\n      add\n        /* \"#utility.yul\":2620:2667   */\n      mstore\n        /* \"#utility.yul\":2684:2770   */\n      tag_82\n        /* \"#utility.yul\":2765:2769   */\n      dup2\n        /* \"#utility.yul\":2756:2762   */\n      dup5\n        /* \"#utility.yul\":2684:2770   */\n      tag_41\n      jump\t// in\n    tag_82:\n        /* \"#utility.yul\":2676:2770   */\n      swap1\n      pop\n        /* \"#utility.yul\":2448:2777   */\n      swap3\n      swap2\n      pop\n      pop\n      jump\t// out\n        /* \"#utility.yul\":2783:2881   */\n    tag_42:\n        /* \"#utility.yul\":2834:2840   */\n      0x00\n        /* \"#utility.yul\":2868:2873   */\n      dup2\n        /* \"#utility.yul\":2862:2874   */\n      mload\n        /* \"#utility.yul\":2852:2874   */\n      swap1\n      pop\n        /* \"#utility.yul\":2783:2881   */\n      swap2\n      swap1\n      pop\n      jump\t// out\n        /* \"#utility.yul\":2887:3063   */\n    tag_43:\n        /* \"#utility.yul\":2978:2989   */\n      0x00\n        /* \"#utility.yul\":3012:3018   */\n      dup3\n        /* \"#utility.yul\":3007:3010   */\n      dup3\n        /* \"#utility.yul\":3000:3019   */\n      mstore\n        /* \"#utility.yul\":3052:3056   */\n      0x20\n        /* \"#utility.yul\":3047:3050   */\n      dup3\n        /* \"#utility.yul\":3043:3057   */\n      add\n        /* \"#utility.yul\":3028:3057   */\n      swap1\n      pop\n        /* \"#utility.yul\":2887:3063   */\n      swap3\n      swap2\n      pop\n      pop\n      jump\t// out\n        /* \"#utility.yul\":3069:3458   */\n    tag_44:\n        /* \"#utility.yul\":3163:3166   */\n      0x00\n        /* \"#utility.yul\":3191:3229   */\n      tag_86\n        /* \"#utility.yul\":3223:3228   */\n      dup3\n        /* \"#utility.yul\":3191:3229   */\n      tag_42\n      jump\t// in\n    tag_86:\n        /* \"#utility.yul\":3245:3323   */\n      tag_87\n        /* \"#utility.yul\":3316:3322   */\n      dup2\n        /* \"#utility.yul\":3311:3314   */\n      dup6\n        /* \"#utility.yul\":3245:3323   */\n      tag_43\n      jump\t// in\n    tag_87:\n        /* \"#utility.yul\":3238:3323   */\n      swap4\n      pop\n        /* \"#utility.yul\":3332:3397   */\n      tag_88\n        /* \"#utility.yul\":3390:3396   */\n      dup2\n        /* \"#utility.yul\":3385:3388   */\n      dup6\n        /* \"#utility.yul\":3378:3382   */\n      0x20\n        /* \"#utility.yul\":3371:3376   */\n      dup7\n        /* \"#utility.yul\":3367:3383   */\n      add\n        /* \"#utility.yul\":3332:3397   */\n      tag_39\n      jump\t// in\n    tag_88:\n        /* \"#utility.yul\":3422:3451   */\n      tag_89\n        /* \"#utility.yul\":3444:3450   */\n      dup2\n        /* \"#utility.yul\":3422:3451   */\n      tag_40\n      jump\t// in\n    tag_89:\n        /* \"#utility.yul\":3417:3420   */\n      dup5\n        /* \"#utility.yul\":3413:3452   */\n      add\n        /* \"#utility.yul\":3406:3452   */\n      swap2\n      pop\n        /* \"#utility.yul\":3167:3458   */\n      pop\n        /* \"#utility.yul\":3069:3458   */\n      swap3\n      swap2\n      pop\n      pop\n      jump\t// out\n        /* \"#utility.yul\":3464:3789   */\n    tag_20:\n        /* \"#utility.yul\":3583:3587   */\n      0x00\n        /* \"#utility.yul\":3621:3623   */\n      0x20\n        /* \"#utility.yul\":3610:3619   */\n      dup3\n        /* \"#utility.yul\":3606:3624   */\n      add\n        /* \"#utility.yul\":3598:3624   */\n      swap1\n      pop\n        /* \"#utility.yul\":3670:3679   */\n      dup2\n        /* \"#utility.yul\":3664:3668   */\n      dup2\n        /* \"#utility.yul\":3660:3680   */\n      sub\n        /* \"#utility.yul\":3656:3657   */\n      0x00\n        /* \"#utility.yul\":3645:3654   */\n      dup4\n        /* \"#utility.yul\":3641:3658   */\n      add\n        /* \"#utility.yul\":3634:3681   */\n      mstore\n        /* \"#utility.yul\":3698:3782   */\n      tag_91\n        /* \"#utility.yul\":3777:3781   */\n      dup2\n        /* \"#utility.yul\":3768:3774   */\n      dup5\n        /* \"#utility.yul\":3698:3782   */\n      tag_44\n      jump\t// in\n    tag_91:\n        /* \"#utility.yul\":3690:3782   */\n      swap1\n      pop\n        /* \"#utility.yul\":3464:3789   */\n      swap3\n      swap2\n      pop\n      pop\n      jump\t// out\n        /* \"#utility.yul\":3795:3874   */\n    tag_45:\n        /* \"#utility.yul\":3834:3841   */\n      0x00\n        /* \"#utility.yul\":3863:3868   */\n      dup2\n        /* \"#utility.yul\":3852:3868   */\n      swap1\n      pop\n        /* \"#utility.yul\":3795:3874   */\n      swap2\n      swap1\n      pop\n      jump\t// out\n        /* \"#utility.yul\":3880:4037   */\n    tag_46:\n        /* \"#utility.yul\":3985:4030   */\n      tag_94\n        /* \"#utility.yul\":4005:4029   */\n      tag_95\n        /* \"#utility.yul\":4023:4028   */\n      dup3\n        /* \"#utility.yul\":4005:4029   */\n      tag_33\n      jump\t// in\n    tag_95:\n        /* \"#utility.yul\":3985:4030   */\n      tag_45\n      jump\t// in\n    tag_94:\n        /* \"#utility.yul\":3980:3983   */\n      dup3\n        /* \"#utility.yul\":3973:4031   */\n      mstore\n        /* \"#utility.yul\":3880:4037   */\n      pop\n      pop\n      jump\t// out\n        /* \"#utility.yul\":4043:4299   */\n    tag_23:\n        /* \"#utility.yul\":4155:4158   */\n      0x00\n        /* \"#utility.yul\":4170:4245   */\n      tag_97\n        /* \"#utility.yul\":4241:4244   */\n      dup3\n        /* \"#utility.yul\":4232:4238   */\n      dup5\n        /* \"#utility.yul\":4170:4245   */\n      tag_46\n      jump\t// in\n    tag_97:\n        /* \"#utility.yul\":4270:4272   */\n      0x20\n        /* \"#utility.yul\":4265:4268   */\n      dup3\n        /* \"#utility.yul\":4261:4273   */\n      add\n        /* \"#utility.yul\":4254:4273   */\n      swap2\n      pop\n        /* \"#utility.yul\":4290:4293   */\n      dup2\n        /* \"#utility.yul\":4283:4293   */\n      swap1\n      pop\n        /* \"#utility.yul\":4043:4299   */\n      swap3\n      swap2\n      pop\n      pop\n      jump\t// out\n        /* \"#utility.yul\":4305:4421   */\n    tag_47:\n        /* \"#utility.yul\":4356:4360   */\n      0x00\n        /* \"#utility.yul\":4379:4382   */\n      dup2\n        /* \"#utility.yul\":4371:4382   */\n      swap1\n      pop\n        /* \"#utility.yul\":4409:4413   */\n      0x20\n        /* \"#utility.yul\":4404:4407   */\n      dup3\n        /* \"#utility.yul\":4400:4414   */\n      add\n        /* \"#utility.yul\":4392:4414   */\n      swap1\n      pop\n        /* \"#utility.yul\":4305:4421   */\n      swap2\n      swap1\n      pop\n      jump\t// out\n        /* \"#utility.yul\":4427:4504   */\n    tag_48:\n        /* \"#utility.yul\":4464:4471   */\n      0x00\n        /* \"#utility.yul\":4493:4498   */\n      dup2\n        /* \"#utility.yul\":4482:4498   */\n      swap1\n      pop\n        /* \"#utility.yul\":4427:4504   */\n      swap2\n      swap1\n      pop\n      jump\t// out\n        /* \"#utility.yul\":4510:4664   */\n    tag_49:\n        /* \"#utility.yul\":4553:4564   */\n      0x00\n        /* \"#utility.yul\":4589:4618   */\n      tag_101\n        /* \"#utility.yul\":4613:4616   */\n      dup3\n        /* \"#utility.yul\":4607:4617   */\n      mload\n        /* \"#utility.yul\":4589:4618   */\n      tag_48\n      jump\t// in\n    tag_101:\n        /* \"#utility.yul\":4652:4657   */\n      dup1\n        /* \"#utility.yul\":4628:4657   */\n      swap2\n      pop\n        /* \"#utility.yul\":4565:4664   */\n      pop\n        /* \"#utility.yul\":4510:4664   */\n      swap2\n      swap1\n      pop\n      jump\t// out\n        /* \"#utility.yul\":4670:4777   */\n    tag_50:\n        /* \"#utility.yul\":4714:4722   */\n      0x00\n        /* \"#utility.yul\":4764:4769   */\n      dup3\n        /* \"#utility.yul\":4758:4762   */\n      dup3\n        /* \"#utility.yul\":4754:4770   */\n      shl\n        /* \"#utility.yul\":4733:4770   */\n      swap1\n      pop\n        /* \"#utility.yul\":4670:4777   */\n      swap3\n      swap2\n      pop\n      pop\n      jump\t// out\n        /* \"#utility.yul\":4783:5377   */\n    tag_25:\n        /* \"#utility.yul\":4867:4872   */\n      0x00\n        /* \"#utility.yul\":4898:4936   */\n      tag_104\n        /* \"#utility.yul\":4930:4935   */\n      dup3\n        /* \"#utility.yul\":4898:4936   */\n      tag_42\n      jump\t// in\n    tag_104:\n        /* \"#utility.yul\":4961:4966   */\n      dup3\n        /* \"#utility.yul\":4988:5028   */\n      tag_105\n        /* \"#utility.yul\":5022:5027   */\n      dup5\n        /* \"#utility.yul\":4988:5028   */\n      tag_47\n      jump\t// in\n    tag_105:\n        /* \"#utility.yul\":4976:5028   */\n      swap1\n      pop\n        /* \"#utility.yul\":5047:5082   */\n      tag_106\n        /* \"#utility.yul\":5073:5081   */\n      dup2\n        /* \"#utility.yul\":5047:5082   */\n      tag_49\n      jump\t// in\n    tag_106:\n        /* \"#utility.yul\":5038:5082   */\n      swap3\n      pop\n        /* \"#utility.yul\":5106:5108   */\n      0x20\n        /* \"#utility.yul\":5098:5104   */\n      dup3\n        /* \"#utility.yul\":5095:5109   */\n      lt\n        /* \"#utility.yul\":5092:5370   */\n      iszero\n      tag_107\n      jumpi\n        /* \"#utility.yul\":5177:5346   */\n      tag_108\n        /* \"#utility.yul\":5262:5328   */\n      0xffffffffffffffffffffffffffffffffffffffffffffffffffffffffffffffff\n        /* \"#utility.yul\":5232:5238   */\n      dup4\n        /* \"#utility.yul\":5228:5230   */\n      0x20\n        /* \"#utility.yul\":5224:5239   */\n      sub\n        /* \"#utility.yul\":5221:5222   */\n      0x08\n        /* \"#utility.yul\":5217:5240   */\n      mul\n        /* \"#utility.yul\":5177:5346   */\n      tag_50\n      jump\t// in\n    tag_108:\n        /* \"#utility.yul\":5154:5159   */\n      dup4\n        /* \"#utility.yul\":5133:5360   */\n      and\n        /* \"#utility.yul\":5124:5360   */\n      swap3\n      pop\n        /* \"#utility.yul\":5092:5370   */\n    tag_107:\n        /* \"#utility.yul\":4873:5377   */\n      pop\n      pop\n        /* \"#utility.yul\":4783:5377   */\n      swap2\n      swap1\n      pop\n      jump\t// out\n\n    auxdata: 0xa2646970667358221220459f0b727152b8d4a977f5d06f80b3fb3a4d0d257a2e5cf8cc744fdda219f46064736f6c63430008120033\n}\n",
				"bytecode": {
					"linkReferences": {},
					"object": "610448610053600b82828239805160001a607314610046577f4e487b7100000000000000000000000000000000000000000000000000000000600052600060045260246000fd5b30600052607381538281f3fe730000000000000000000000000000000000000000301460806040526004361061004b5760003560e01c806357f5c63c146100505780636900a3ae14610080578063775a8f5e146100b0575b600080fd5b61006a600480360381019061006591906101b3565b6100e0565b60405161007791906101ef565b60405180910390f35b61009a600480360381019061009591906101b3565b61011a565b6040516100a7919061029a565b60405180910390f35b6100ca60048036038101906100c591906101b3565b610149565b6040516100d79190610311565b60405180910390f35b600080826040516020016100f49190610354565b60405160208183030381529060405290508061010f906103ab565b60001c915050919050565b606060008260405160200161012f9190610354565b604051602081830303815290604052905080915050919050565b606060008260405160200161015e9190610354565b604051602081830303815290604052905080915050919050565b600080fd5b6000819050919050565b6101908161017d565b811461019b57600080fd5b50565b6000813590506101ad81610187565b92915050565b6000602082840312156101c9576101c8610178565b5b60006101d78482850161019e565b91505092915050565b6101e98161017d565b82525050565b600060208201905061020460008301846101e0565b92915050565b600081519050919050565b600082825260208201905092915050565b60005b83811015610244578082015181840152602081019050610229565b60008484015250505050565b6000601f19601f8301169050919050565b600061026c8261020a565b6102768185610215565b9350610286818560208601610226565b61028f81610250565b840191505092915050565b600060208201905081810360008301526102b48184610261565b905092915050565b600081519050919050565b600082825260208201905092915050565b60006102e3826102bc565b6102ed81856102c7565b93506102fd818560208601610226565b61030681610250565b840191505092915050565b6000602082019050818103600083015261032b81846102d8565b905092915050565b6000819050919050565b61034e6103498261017d565b610333565b82525050565b6000610360828461033d565b60208201915081905092915050565b6000819050602082019050919050565b6000819050919050565b6000610395825161037f565b80915050919050565b600082821b905092915050565b60006103b6826102bc565b826103c08461036f565b90506103cb81610389565b9250602082101561040b576104067fffffffffffffffffffffffffffffffffffffffffffffffffffffffffffffffff8360200360080261039e565b831692505b505091905056fea2646970667358221220459f0b727152b8d4a977f5d06f80b3fb3a4d0d257a2e5cf8cc744fdda219f46064736f6c63430008120033",
					"opcodes": "PUSH2 0x448 PUSH2 0x53 PUSH1 0xB DUP3 DUP3 DUP3 CODECOPY DUP1 MLOAD PUSH1 0x0 BYTE PUSH1 0x73 EQ PUSH2 0x46 JUMPI PUSH32 0x4E487B7100000000000000000000000000000000000000000000000000000000 PUSH1 0x0 MSTORE PUSH1 0x0 PUSH1 0x4 MSTORE PUSH1 0x24 PUSH1 0x0 REVERT JUMPDEST ADDRESS PUSH1 0x0 MSTORE PUSH1 0x73 DUP2 MSTORE8 DUP3 DUP2 RETURN INVALID PUSH20 0x0 ADDRESS EQ PUSH1 0x80 PUSH1 0x40 MSTORE PUSH1 0x4 CALLDATASIZE LT PUSH2 0x4B JUMPI PUSH1 0x0 CALLDATALOAD PUSH1 0xE0 SHR DUP1 PUSH4 0x57F5C63C EQ PUSH2 0x50 JUMPI DUP1 PUSH4 0x6900A3AE EQ PUSH2 0x80 JUMPI DUP1 PUSH4 0x775A8F5E EQ PUSH2 0xB0 JUMPI JUMPDEST PUSH1 0x0 DUP1 REVERT JUMPDEST PUSH2 0x6A PUSH1 0x4 DUP1 CALLDATASIZE SUB DUP2 ADD SWAP1 PUSH2 0x65 SWAP2 SWAP1 PUSH2 0x1B3 JUMP JUMPDEST PUSH2 0xE0 JUMP JUMPDEST PUSH1 0x40 MLOAD PUSH2 0x77 SWAP2 SWAP1 PUSH2 0x1EF JUMP JUMPDEST PUSH1 0x40 MLOAD DUP1 SWAP2 SUB SWAP1 RETURN JUMPDEST PUSH2 0x9A PUSH1 0x4 DUP1 CALLDATASIZE SUB DUP2 ADD SWAP1 PUSH2 0x95 SWAP2 SWAP1 PUSH2 0x1B3 JUMP JUMPDEST PUSH2 0x11A JUMP JUMPDEST PUSH1 0x40 MLOAD PUSH2 0xA7 SWAP2 SWAP1 PUSH2 0x29A JUMP JUMPDEST PUSH1 0x40 MLOAD DUP1 SWAP2 SUB SWAP1 RETURN JUMPDEST PUSH2 0xCA PUSH1 0x4 DUP1 CALLDATASIZE SUB DUP2 ADD SWAP1 PUSH2 0xC5 SWAP2 SWAP1 PUSH2 0x1B3 JUMP JUMPDEST PUSH2 0x149 JUMP JUMPDEST PUSH1 0x40 MLOAD PUSH2 0xD7 SWAP2 SWAP1 PUSH2 0x311 JUMP JUMPDEST PUSH1 0x40 MLOAD DUP1 SWAP2 SUB SWAP1 RETURN JUMPDEST PUSH1 0x0 DUP1 DUP3 PUSH1 0x40 MLOAD PUSH1 0x20 ADD PUSH2 0xF4 SWAP2 SWAP1 PUSH2 0x354 JUMP JUMPDEST PUSH1 0x40 MLOAD PUSH1 0x20 DUP2 DUP4 SUB SUB DUP2 MSTORE SWAP1 PUSH1 0x40 MSTORE SWAP1 POP DUP1 PUSH2 0x10F SWAP1 PUSH2 0x3AB JUMP JUMPDEST PUSH1 0x0 SHR SWAP2 POP POP SWAP2 SWAP1 POP JUMP JUMPDEST PUSH1 0x60 PUSH1 0x0 DUP3 PUSH1 0x40 MLOAD PUSH1 0x20 ADD PUSH2 0x12F SWAP2 SWAP1 PUSH2 0x354 JUMP JUMPDEST PUSH1 0x40 MLOAD PUSH1 0x20 DUP2 DUP4 SUB SUB DUP2 MSTORE SWAP1 PUSH1 0x40 MSTORE SWAP1 POP DUP1 SWAP2 POP POP SWAP2 SWAP1 POP JUMP JUMPDEST PUSH1 0x60 PUSH1 0x0 DUP3 PUSH1 0x40 MLOAD PUSH1 0x20 ADD PUSH2 0x15E SWAP2 SWAP1 PUSH2 0x354 JUMP JUMPDEST PUSH1 0x40 MLOAD PUSH1 0x20 DUP2 DUP4 SUB SUB DUP2 MSTORE SWAP1 PUSH1 0x40 MSTORE SWAP1 POP DUP1 SWAP2 POP POP SWAP2 SWAP1 POP JUMP JUMPDEST PUSH1 0x0 DUP1 REVERT JUMPDEST PUSH1 0x0 DUP2 SWAP1 POP SWAP2 SWAP1 POP JUMP JUMPDEST PUSH2 0x190 DUP2 PUSH2 0x17D JUMP JUMPDEST DUP2 EQ PUSH2 0x19B JUMPI PUSH1 0x0 DUP1 REVERT JUMPDEST POP JUMP JUMPDEST PUSH1 0x0 DUP2 CALLDATALOAD SWAP1 POP PUSH2 0x1AD DUP2 PUSH2 0x187 JUMP JUMPDEST SWAP3 SWAP2 POP POP JUMP JUMPDEST PUSH1 0x0 PUSH1 0x20 DUP3 DUP5 SUB SLT ISZERO PUSH2 0x1C9 JUMPI PUSH2 0x1C8 PUSH2 0x178 JUMP JUMPDEST JUMPDEST PUSH1 0x0 PUSH2 0x1D7 DUP5 DUP3 DUP6 ADD PUSH2 0x19E JUMP JUMPDEST SWAP2 POP POP SWAP3 SWAP2 POP POP JUMP JUMPDEST PUSH2 0x1E9 DUP2 PUSH2 0x17D JUMP JUMPDEST DUP3 MSTORE POP POP JUMP JUMPDEST PUSH1 0x0 PUSH1 0x20 DUP3 ADD SWAP1 POP PUSH2 0x204 PUSH1 0x0 DUP4 ADD DUP5 PUSH2 0x1E0 JUMP JUMPDEST SWAP3 SWAP2 POP POP JUMP JUMPDEST PUSH1 0x0 DUP2 MLOAD SWAP1 POP SWAP2 SWAP1 POP JUMP JUMPDEST PUSH1 0x0 DUP3 DUP3 MSTORE PUSH1 0x20 DUP3 ADD SWAP1 POP SWAP3 SWAP2 POP POP JUMP JUMPDEST PUSH1 0x0 JUMPDEST DUP4 DUP2 LT ISZERO PUSH2 0x244 JUMPI DUP1 DUP3 ADD MLOAD DUP2 DUP5 ADD MSTORE PUSH1 0x20 DUP2 ADD SWAP1 POP PUSH2 0x229 JUMP JUMPDEST PUSH1 0x0 DUP5 DUP5 ADD MSTORE POP POP POP POP JUMP JUMPDEST PUSH1 0x0 PUSH1 0x1F NOT PUSH1 0x1F DUP4 ADD AND SWAP1 POP SWAP2 SWAP1 POP JUMP JUMPDEST PUSH1 0x0 PUSH2 0x26C DUP3 PUSH2 0x20A JUMP JUMPDEST PUSH2 0x276 DUP2 DUP6 PUSH2 0x215 JUMP JUMPDEST SWAP4 POP PUSH2 0x286 DUP2 DUP6 PUSH1 0x20 DUP7 ADD PUSH2 0x226 JUMP JUMPDEST PUSH2 0x28F DUP2 PUSH2 0x250 JUMP JUMPDEST DUP5 ADD SWAP2 POP POP SWAP3 SWAP2 POP POP JUMP JUMPDEST PUSH1 0x0 PUSH1 0x20 DUP3 ADD SWAP1 POP DUP2 DUP2 SUB PUSH1 0x0 DUP4 ADD MSTORE PUSH2 0x2B4 DUP2 DUP5 PUSH2 0x261 JUMP JUMPDEST SWAP1 POP SWAP3 SWAP2 POP POP JUMP JUMPDEST PUSH1 0x0 DUP2 MLOAD SWAP1 POP SWAP2 SWAP1 POP JUMP JUMPDEST PUSH1 0x0 DUP3 DUP3 MSTORE PUSH1 0x20 DUP3 ADD SWAP1 POP SWAP3 SWAP2 POP POP JUMP JUMPDEST PUSH1 0x0 PUSH2 0x2E3 DUP3 PUSH2 0x2BC JUMP JUMPDEST PUSH2 0x2ED DUP2 DUP6 PUSH2 0x2C7 JUMP JUMPDEST SWAP4 POP PUSH2 0x2FD DUP2 DUP6 PUSH1 0x20 DUP7 ADD PUSH2 0x226 JUMP JUMPDEST PUSH2 0x306 DUP2 PUSH2 0x250 JUMP JUMPDEST DUP5 ADD SWAP2 POP POP SWAP3 SWAP2 POP POP JUMP JUMPDEST PUSH1 0x0 PUSH1 0x20 DUP3 ADD SWAP1 POP DUP2 DUP2 SUB PUSH1 0x0 DUP4 ADD MSTORE PUSH2 0x32B DUP2 DUP5 PUSH2 0x2D8 JUMP JUMPDEST SWAP1 POP SWAP3 SWAP2 POP POP JUMP JUMPDEST PUSH1 0x0 DUP2 SWAP1 POP SWAP2 SWAP1 POP JUMP JUMPDEST PUSH2 0x34E PUSH2 0x349 DUP3 PUSH2 0x17D JUMP JUMPDEST PUSH2 0x333 JUMP JUMPDEST DUP3 MSTORE POP POP JUMP JUMPDEST PUSH1 0x0 PUSH2 0x360 DUP3 DUP5 PUSH2 0x33D JUMP JUMPDEST PUSH1 0x20 DUP3 ADD SWAP2 POP DUP2 SWAP1 POP SWAP3 SWAP2 POP POP JUMP JUMPDEST PUSH1 0x0 DUP2 SWAP1 POP PUSH1 0x20 DUP3 ADD SWAP1 POP SWAP2 SWAP1 POP JUMP JUMPDEST PUSH1 0x0 DUP2 SWAP1 POP SWAP2 SWAP1 POP JUMP JUMPDEST PUSH1 0x0 PUSH2 0x395 DUP3 MLOAD PUSH2 0x37F JUMP JUMPDEST DUP1 SWAP2 POP POP SWAP2 SWAP1 POP JUMP JUMPDEST PUSH1 0x0 DUP3 DUP3 SHL SWAP1 POP SWAP3 SWAP2 POP POP JUMP JUMPDEST PUSH1 0x0 PUSH2 0x3B6 DUP3 PUSH2 0x2BC JUMP JUMPDEST DUP3 PUSH2 0x3C0 DUP5 PUSH2 0x36F JUMP JUMPDEST SWAP1 POP PUSH2 0x3CB DUP2 PUSH2 0x389 JUMP JUMPDEST SWAP3 POP PUSH1 0x20 DUP3 LT ISZERO PUSH2 0x40B JUMPI PUSH2 0x406 PUSH32 0xFFFFFFFFFFFFFFFFFFFFFFFFFFFFFFFFFFFFFFFFFFFFFFFFFFFFFFFFFFFFFFFF DUP4 PUSH1 0x20 SUB PUSH1 0x8 MUL PUSH2 0x39E JUMP JUMPDEST DUP4 AND SWAP3 POP JUMPDEST POP POP SWAP2 SWAP1 POP JUMP INVALID LOG2 PUSH5 0x6970667358 0x22 SLT KECCAK256 GASLIMIT SWAP16 SIGNEXTEND PUSH19 0x7152B8D4A977F5D06F80B3FB3A4D0D257A2E5C 0xF8 0xCC PUSH21 0x4FDDA219F46064736F6C6343000812003300000000 "
				},
				"gasEstimates": {
					"creation": {
						"codeDepositCost": "219200",
						"executionCost": "288",
						"totalCost": "219488"
					},
					"external": {
						"toBytes(uint256)": "infinite",
						"toString(uint256)": "infinite",
						"toUint(uint256)": "infinite"
					}
				},
				"methodIdentifiers": {
					"toBytes(uint256)": "775a8f5e",
					"toString(uint256)": "6900a3ae",
					"toUint(uint256)": "57f5c63c"
				}
			},
			"storageLayout": {
				"storage": [],
				"types": null
			},
			"userdoc": {
				"kind": "user",
				"methods": {},
				"version": 1
			}
		}
	}
}